{
  "_format": "hh-sol-artifact-1",
  "contractName": "EllipticCurve",
  "sourceName": "contracts/EllipticCurve.sol",
  "abi": [
    {
      "inputs": [
        {
          "internalType": "uint256",
          "name": "x0",
          "type": "uint256"
        },
        {
          "internalType": "uint256",
          "name": "y0",
          "type": "uint256"
        },
        {
          "internalType": "uint256",
          "name": "x1",
          "type": "uint256"
        },
        {
          "internalType": "uint256",
          "name": "y1",
          "type": "uint256"
        }
      ],
      "name": "add",
      "outputs": [
        {
          "internalType": "uint256",
          "name": "",
          "type": "uint256"
        },
        {
          "internalType": "uint256",
          "name": "",
          "type": "uint256"
        }
      ],
      "stateMutability": "pure",
      "type": "function"
    },
    {
      "inputs": [
        {
          "internalType": "uint256",
          "name": "x1",
          "type": "uint256"
        },
        {
          "internalType": "uint256",
          "name": "y1",
          "type": "uint256"
        },
        {
          "internalType": "uint256",
          "name": "x2",
          "type": "uint256"
        },
        {
          "internalType": "uint256",
          "name": "y2",
          "type": "uint256"
        }
      ],
      "name": "addAndReturnProjectivePoint",
      "outputs": [
        {
          "internalType": "uint256[3]",
          "name": "P",
          "type": "uint256[3]"
        }
      ],
      "stateMutability": "pure",
      "type": "function"
    },
    {
      "inputs": [
        {
          "internalType": "uint256",
          "name": "x0",
          "type": "uint256"
        },
        {
          "internalType": "uint256",
          "name": "y0",
          "type": "uint256"
        },
        {
          "internalType": "uint256",
          "name": "z0",
          "type": "uint256"
        },
        {
          "internalType": "uint256",
          "name": "x1",
          "type": "uint256"
        },
        {
          "internalType": "uint256",
          "name": "y1",
          "type": "uint256"
        },
        {
          "internalType": "uint256",
          "name": "z1",
          "type": "uint256"
        }
      ],
      "name": "addProj",
      "outputs": [
        {
          "internalType": "uint256",
          "name": "x2",
          "type": "uint256"
        },
        {
          "internalType": "uint256",
          "name": "y2",
          "type": "uint256"
        },
        {
          "internalType": "uint256",
          "name": "z2",
          "type": "uint256"
        }
      ],
      "stateMutability": "pure",
      "type": "function"
    },
    {
      "inputs": [
        {
          "internalType": "uint256",
          "name": "x",
          "type": "uint256"
        },
        {
          "internalType": "uint256",
          "name": "y",
          "type": "uint256"
        }
      ],
      "name": "isOnCurve",
      "outputs": [
        {
          "internalType": "bool",
          "name": "",
          "type": "bool"
        }
      ],
      "stateMutability": "pure",
      "type": "function"
    },
    {
      "inputs": [
        {
          "internalType": "uint256",
          "name": "x0",
          "type": "uint256"
        },
        {
          "internalType": "uint256",
          "name": "y0",
          "type": "uint256"
        }
      ],
      "name": "isZeroCurve",
      "outputs": [
        {
          "internalType": "bool",
          "name": "isZero",
          "type": "bool"
        }
      ],
      "stateMutability": "pure",
      "type": "function"
    },
    {
      "inputs": [
        {
          "internalType": "uint256",
          "name": "scalar",
          "type": "uint256"
        }
      ],
      "name": "multipleGeneratorByScalar",
      "outputs": [
        {
          "internalType": "uint256",
          "name": "",
          "type": "uint256"
        },
        {
          "internalType": "uint256",
          "name": "",
          "type": "uint256"
        }
      ],
      "stateMutability": "pure",
      "type": "function"
    },
    {
      "inputs": [
        {
          "internalType": "uint256",
          "name": "x0",
          "type": "uint256"
        },
        {
          "internalType": "uint256",
          "name": "y0",
          "type": "uint256"
        },
        {
          "internalType": "uint256",
          "name": "exp",
          "type": "uint256"
        }
      ],
      "name": "multiplyPowerBase2",
      "outputs": [
        {
          "internalType": "uint256",
          "name": "",
          "type": "uint256"
        },
        {
          "internalType": "uint256",
          "name": "",
          "type": "uint256"
        }
      ],
      "stateMutability": "pure",
      "type": "function"
    },
    {
      "inputs": [
        {
          "internalType": "uint256",
          "name": "x0",
          "type": "uint256"
        },
        {
          "internalType": "uint256",
          "name": "y0",
          "type": "uint256"
        },
        {
          "internalType": "uint256",
          "name": "scalar",
          "type": "uint256"
        }
      ],
      "name": "multiplyScalar",
      "outputs": [
        {
          "internalType": "uint256",
          "name": "x1",
          "type": "uint256"
        },
        {
          "internalType": "uint256",
          "name": "y1",
          "type": "uint256"
        }
      ],
      "stateMutability": "pure",
      "type": "function"
    },
    {
      "inputs": [
        {
          "internalType": "uint256",
          "name": "x0",
          "type": "uint256"
        },
        {
          "internalType": "uint256",
          "name": "y0",
          "type": "uint256"
        },
        {
          "internalType": "uint256",
          "name": "z0",
          "type": "uint256"
        }
      ],
      "name": "toAffinePoint",
      "outputs": [
        {
          "internalType": "uint256",
          "name": "x1",
          "type": "uint256"
        },
        {
          "internalType": "uint256",
          "name": "y1",
          "type": "uint256"
        }
      ],
      "stateMutability": "pure",
      "type": "function"
    },
    {
      "inputs": [
        {
          "internalType": "uint256",
          "name": "x0",
          "type": "uint256"
        },
        {
          "internalType": "uint256",
          "name": "y0",
          "type": "uint256"
        }
      ],
      "name": "toProjectivePoint",
      "outputs": [
        {
          "internalType": "uint256[3]",
          "name": "P",
          "type": "uint256[3]"
        }
      ],
      "stateMutability": "pure",
      "type": "function"
    },
    {
      "inputs": [
        {
          "internalType": "uint256",
          "name": "x0",
          "type": "uint256"
        },
        {
          "internalType": "uint256",
          "name": "y0",
          "type": "uint256"
        }
      ],
      "name": "twice",
      "outputs": [
        {
          "internalType": "uint256",
          "name": "",
          "type": "uint256"
        },
        {
          "internalType": "uint256",
          "name": "",
          "type": "uint256"
        }
      ],
      "stateMutability": "pure",
      "type": "function"
    },
    {
      "inputs": [
        {
          "internalType": "uint256",
          "name": "x0",
          "type": "uint256"
        },
        {
          "internalType": "uint256",
          "name": "y0",
          "type": "uint256"
        },
        {
          "internalType": "uint256",
          "name": "z0",
          "type": "uint256"
        }
      ],
      "name": "twiceProj",
      "outputs": [
        {
          "internalType": "uint256",
          "name": "x1",
          "type": "uint256"
        },
        {
          "internalType": "uint256",
          "name": "y1",
          "type": "uint256"
        },
        {
          "internalType": "uint256",
          "name": "z1",
          "type": "uint256"
        }
      ],
      "stateMutability": "pure",
      "type": "function"
    },
    {
      "inputs": [
        {
          "internalType": "bytes32",
          "name": "message",
          "type": "bytes32"
        },
        {
          "internalType": "uint256[2]",
          "name": "rs",
          "type": "uint256[2]"
        },
        {
          "internalType": "uint256[2]",
          "name": "Q",
          "type": "uint256[2]"
        }
      ],
      "name": "validateSignature",
      "outputs": [
        {
          "internalType": "bool",
          "name": "",
          "type": "bool"
        }
      ],
      "stateMutability": "nonpayable",
      "type": "function"
    },
    {
      "inputs": [],
      "name": "zeroAffine",
      "outputs": [
        {
          "internalType": "uint256",
          "name": "x",
          "type": "uint256"
        },
        {
          "internalType": "uint256",
          "name": "y",
          "type": "uint256"
        }
      ],
      "stateMutability": "pure",
      "type": "function"
    },
    {
      "inputs": [],
      "name": "zeroProj",
      "outputs": [
        {
          "internalType": "uint256",
          "name": "x",
          "type": "uint256"
        },
        {
          "internalType": "uint256",
          "name": "y",
          "type": "uint256"
        },
        {
          "internalType": "uint256",
          "name": "z",
          "type": "uint256"
        }
      ],
      "stateMutability": "pure",
      "type": "function"
    }
  ],
  "bytecode": "0x6080806040523461001a576000805561132490816100208239f35b600080fdfe6040608081526004908136101561001557600080fd5b6000803560e01c806304e960d71461033557806309d3ef31146103195780630afb4ddc146102fa5780630b0dbcfa146102de57806314c67060146102b7578063322b24aa1461024a578063675ca04314610237578063713eca281461021757806372fb4a14146101f25780637ec8da8d146101ca57806384dfba46146101ac578063c30cfa2d14610187578063c80edca414610166578063e022d77c1461011b5763f214aba0146100c557600080fd5b346101185760c036600319011261011857506100f86101149260a435906084359060643590604435906024359035610c7b565b9251918252602082015260408101919091529081906060820190565b0390f35b80fd5b5034610118575061014361013a61013136610465565b92919091610997565b9290919261059a565b835192600160601b63ffffffff60c01b0319929083908390098452096020820152f35b50903461018357610114906100f861017d3661044b565b91610830565b5080fd5b509034610183576020906101a361019d36610430565b906106cc565b90519015158152f35b50346101185780600319360112610118578151908082526020820152f35b50903461018357610114906101e76101e136610430565b906104b1565b905191829182610483565b5034610118575061020b6102053661044b565b916110fd565b82519182526020820152f35b50903461018357610114906101e761022e36610465565b929190916104e8565b5034610118575061014361013a3661044b565b508234610183579061025b3661044b565b90939193926001928382935b80851061027a578888886101438961059a565b92956102899295919497610830565b9196909591949060001981146102a457840193909192610267565b634e487b7160e01b835260118252602483fd5b50903461018357816003193601126101835760609181519181835260016020840152820152f35b509034610183576020906101a36102f436610430565b906106ec565b50829034610118576020366003190112610118575061020b9035610f5a565b5034610118575061014361013a61032f36610430565b9061079f565b509190346103d65760a03660031901126103d65736604312156103d65761035a6103da565b91826064933685116103d2576024905b8582106103c257505036608312156103be576103846103da565b918260a4953687116103ba5760209750905b8682106103ab5750506101a3939450356111bc565b81358152908701908701610396565b8780fd5b8480fd5b813581526020918201910161036a565b8580fd5b8280fd5b604051906040820182811067ffffffffffffffff8211176103fa57604052565b634e487b7160e01b600052604160045260246000fd5b604051906060820182811067ffffffffffffffff8211176103fa57604052565b6040906003190112610446576004359060243590565b600080fd5b606090600319011261044657600435906024359060443590565b60809060031901126104465760043590602435906044359060643590565b6060810192916000915b6003831061049a57505050565b60019082518152602080910192019201919061048d565b919060206001806104c0610410565b93606036863784968260408701528260601b63ffffffff60c01b031993849109855209910152565b926105079261013a926105239560606104ff610410565b369037610997565b600160601b63ffffffff60c01b031991829082900992096104b1565b90565b60016000600160601b63ffffffff60c01b03197f8d761fd160e5bb67afe5854016bb02b6f80baf8d4b7fce3c852842092b408ce3805b61058257505090506000811261056f5790565b600160601b63ffffffff60c01b03190190565b8082048481029093039392909190820290038061055c565b80158015610615575b801561060d575b61060757600160601b63ffffffff60c01b03198082116105fe575b6000916001908290805b6105e657505050600082126105e2575090565b0190565b919382820480860290910392919082029003806105cf565b809106906105c5565b50600090565b5060006105aa565b50600160601b63ffffffff60c01b031981146105a3565b801580156106a9575b80156106a1575b610607576f4319055258e8617b0c46353d039cdaae63ffffffff60c01b0119808211610698575b6000916001908290805b61068057505050600082126105e2575090565b9193828204808602909103929190820290038061066d565b80910690610663565b50600061063c565b506f4319055258e8617b0c46353d039cdaae63ffffffff60c01b01198114610635565b1590816106e3575b506106de57600090565b600190565b905015386106d4565b80158015610788575b8015610780575b8015610769575b61076257600160601b63ffffffff60c01b03199081907f5ac635d8aa3a93e7b3ebbd55769886bc651d06b0cc53b0f63bce3c3e27d2604b90829081806003600160601b0363ffffffff60c01b0319830991818180090908089180091490565b5050600090565b50600160601b63ffffffff60c01b03198214610703565b5081156106fc565b50600160601b63ffffffff60c01b031981146106f5565b916107aa82846106cc565b61082457600160601b63ffffffff60c01b03198080858180806002818a8180848160018509099d8e090909926003600160601b0363ffffffff60c01b0319908290600390829080090908818080808c818089600209810381888009089c098009600209810393898203900890090893850993818180090990565b60009250600191508290565b9192909261083e84846106cc565b61098a57600160601b63ffffffff60c01b03196002818681878185818986090909090992600160601b63ffffffff60c01b031990816003600160601b0363ffffffff60c01b0319818580090990600160601b63ffffffff60c01b03199060039082908009090892600160601b63ffffffff60c01b03198082600209600160601b63ffffffff60c01b0319908103908680090893600160601b63ffffffff60c01b031980600281868a09098709600160601b63ffffffff60c01b03199290839081908009600209600160601b63ffffffff60c01b03199081039290918290888203900890090892600160601b63ffffffff60c01b03199081600281858909090993600160601b63ffffffff60c01b031991826002818385090991600160601b63ffffffff60c01b03199160028381818486090992600160601b63ffffffff60c01b03199283910909090990565b5060009250600191508290565b9392936109a482826106cc565b156109b25750509190600190565b909192936109c081856106cc565b610c7157600160601b63ffffffff60c01b031960018509600160601b63ffffffff60c01b03196001840914610c2557600160601b63ffffffff60c01b031990819060019009600160601b63ffffffff60c01b0319908103906001850908600160601b63ffffffff60c01b03198080808060018909600160601b63ffffffff60c01b0319908103906001880908600160601b63ffffffff60c01b03198060018a09600160601b63ffffffff60c01b031990810390600189090809600160601b63ffffffff60c01b03198060018709600160601b63ffffffff60c01b031960018a090809600160601b63ffffffff60c01b031990810390600181858009090890600160601b63ffffffff60c01b0319808060018809600160601b63ffffffff60c01b0319908103906001870908600160601b63ffffffff60c01b0319808060018a09600160601b63ffffffff60c01b0319908103906001890908600160601b63ffffffff60c01b03198060018b09600160601b63ffffffff60c01b03199081039060018a0908090990600160601b63ffffffff60c01b03196001830994600160601b63ffffffff60c01b031992839182906001900909600160601b63ffffffff60c01b031990810391818581038180808060018e09600160601b63ffffffff60c01b03199081039060018d0908600160601b63ffffffff60c01b03198060018f09600160601b63ffffffff60c01b03199081039060018e090809600160601b63ffffffff60c01b031960018b09090890090893600160601b63ffffffff60c01b0319928391829060019009600160601b63ffffffff60c01b03199081039160019009080992565b909250600160601b63ffffffff60c01b03199060019009600160601b63ffffffff60c01b03196001830903610c6457610c5d9161079f565b9192909190565b5050600090600190600090565b5092909150600190565b91959395610c8982846106cc565b15610c9657505050929190565b909395610ca681859794976106cc565b610f4f57600160601b63ffffffff60c01b0319828509600160601b63ffffffff60c01b031984880914610f0957600160601b63ffffffff60c01b0319908190839009600160601b63ffffffff60c01b0319908103908487090891600160601b63ffffffff60c01b031980808080868909600160601b63ffffffff60c01b031990810390868c0908600160601b63ffffffff60c01b031980878a09600160601b63ffffffff60c01b031990810390878d090809600160601b63ffffffff60c01b031980858b09600160601b63ffffffff60c01b0319878a090809600160601b63ffffffff60c01b03199081039080848609600160601b63ffffffff60c01b0319878009090892600160601b63ffffffff60c01b03198080858809600160601b63ffffffff60c01b031990810390858b0908600160601b63ffffffff60c01b03198080878a09600160601b63ffffffff60c01b031990810390878d0908600160601b63ffffffff60c01b031980888b09600160601b63ffffffff60c01b031990810390888e0908090990600160601b63ffffffff60c01b031980848609830996600160601b63ffffffff60c01b0319928391829086900909600160601b63ffffffff60c01b0319908103918187810381808d8c82808d8309600160601b63ffffffff60c01b0319908103908d85090891600160601b63ffffffff60c01b03199182908e9009600160601b63ffffffff60c01b0319908103918d90090809600160601b63ffffffff60c01b0319898f09090890090895600160601b63ffffffff60c01b0319948593849109600160601b63ffffffff60c01b031990810392909109080992565b90939250600160601b63ffffffff60c01b03199084900990600160601b63ffffffff60c01b031990830903610f4157610c5d92610830565b505050600090600190600090565b509391505092909190565b80610f685750600090600090565b60018103610fb757507f6b17d1f2e12c4247f8bce6e563a440f277037d812deb33a0f4a13945d898c296907f4fe342e2fe1a7f9b8ee7eb4a7c0f9e162bce33576b315ececbb6406837bf51f590565b9060028214611099577f6b17d1f2e12c4247f8bce6e563a440f277037d812deb33a0f4a13945d898c2967f4fe342e2fe1a7f9b8ee7eb4a7c0f9e162bce33576b315ececbb6406837bf51f59060019081819380968281161561108d575b821c92835b611044575050505061102a9061059a565b600160601b63ffffffff60c01b0319918290829009930990565b9061104f9291610830565b919282828560018085161461106c575b50505060011c9283611019565b9061107e959a93989291979497610c7b565b9691969390969438808061105f565b60009750879550611014565b90506110a3610526565b90600160601b63ffffffff60c01b031980837f88b13398542d5c8e69a0be9fe51bba8fffab23c970e684814e4b1cf45751336f09927f4126885e7f786af905338238e5346d5fe77fc46388668bd0fd59be3190d2f5d10990565b909291806111115750509050600090600090565b6001810361111e57509190565b9290600284146111a55780826001908193949682811615611199575b821c92835b611150575050505061102a9061059a565b9061115b9291610830565b9192828285600180851614611178575b50505060011c928361113f565b9061118a959a93989291979497610c7b565b9691969390969438808061116b565b6000975087955061113a565b61102a9350906111b49161079f565b93909361059a565b90916001600055825191821580156112ca575b80156112be575b8015611293575b6112805760208251920151926111f384846106ec565b156112895761124461124c9361120c602088015161062c565b95869461123a7bffffffff00000000000000004319055258e8617b0c46353d039cdaae198099819309610f5a565b96909509916110fd565b9290916104e8565b60408101518015611280576112609061059a565b9051925192600160601b63ffffffff60c01b031991829080099009061490565b50505050600090565b5050505050600090565b507bffffffff00000000000000004319055258e8617b0c46353d039cdaae19602085015110156111dd565b506020840151156111d6565b506f4319055258e8617b0c46353d039cdaae63ffffffff60c01b01198310156111cf56fea2646970667358221220c747ca9738a0ea0b2463efb98c6ce440545df43df5eeb30a063fbe3365ddd40d64736f6c63430008120033",
  "linkReferences": {},
  "deployedLinkReferences": {}
}