{
  "abi": [
    {
      "inputs": [
        {
          "internalType": "uint256",
          "name": "x0",
          "type": "uint256"
        },
        {
          "internalType": "uint256",
          "name": "y0",
          "type": "uint256"
        },
        {
          "internalType": "uint256",
          "name": "x1",
          "type": "uint256"
        },
        {
          "internalType": "uint256",
          "name": "y1",
          "type": "uint256"
        }
      ],
      "name": "add",
      "outputs": [
        {
          "internalType": "uint256",
          "name": "",
          "type": "uint256"
        },
        {
          "internalType": "uint256",
          "name": "",
          "type": "uint256"
        }
      ],
      "stateMutability": "pure",
      "type": "function"
    },
    {
      "inputs": [
        {
          "internalType": "uint256",
          "name": "x1",
          "type": "uint256"
        },
        {
          "internalType": "uint256",
          "name": "y1",
          "type": "uint256"
        },
        {
          "internalType": "uint256",
          "name": "x2",
          "type": "uint256"
        },
        {
          "internalType": "uint256",
          "name": "y2",
          "type": "uint256"
        }
      ],
      "name": "addAndReturnProjectivePoint",
      "outputs": [
        {
          "internalType": "uint256[3]",
          "name": "P",
          "type": "uint256[3]"
        }
      ],
      "stateMutability": "pure",
      "type": "function"
    },
    {
      "inputs": [
        {
          "internalType": "uint256",
          "name": "x0",
          "type": "uint256"
        },
        {
          "internalType": "uint256",
          "name": "y0",
          "type": "uint256"
        },
        {
          "internalType": "uint256",
          "name": "z0",
          "type": "uint256"
        },
        {
          "internalType": "uint256",
          "name": "x1",
          "type": "uint256"
        },
        {
          "internalType": "uint256",
          "name": "y1",
          "type": "uint256"
        },
        {
          "internalType": "uint256",
          "name": "z1",
          "type": "uint256"
        }
      ],
      "name": "addProj",
      "outputs": [
        {
          "internalType": "uint256",
          "name": "x2",
          "type": "uint256"
        },
        {
          "internalType": "uint256",
          "name": "y2",
          "type": "uint256"
        },
        {
          "internalType": "uint256",
          "name": "z2",
          "type": "uint256"
        }
      ],
      "stateMutability": "pure",
      "type": "function"
    },
    {
      "inputs": [
        {
          "internalType": "uint256",
          "name": "x",
          "type": "uint256"
        },
        {
          "internalType": "uint256",
          "name": "y",
          "type": "uint256"
        }
      ],
      "name": "isOnCurve",
      "outputs": [
        {
          "internalType": "bool",
          "name": "",
          "type": "bool"
        }
      ],
      "stateMutability": "pure",
      "type": "function"
    },
    {
      "inputs": [
        {
          "internalType": "uint256",
          "name": "x0",
          "type": "uint256"
        },
        {
          "internalType": "uint256",
          "name": "y0",
          "type": "uint256"
        }
      ],
      "name": "isZeroCurve",
      "outputs": [
        {
          "internalType": "bool",
          "name": "isZero",
          "type": "bool"
        }
      ],
      "stateMutability": "pure",
      "type": "function"
    },
    {
      "inputs": [
        {
          "internalType": "uint256",
          "name": "scalar",
          "type": "uint256"
        }
      ],
      "name": "multipleGeneratorByScalar",
      "outputs": [
        {
          "internalType": "uint256",
          "name": "",
          "type": "uint256"
        },
        {
          "internalType": "uint256",
          "name": "",
          "type": "uint256"
        }
      ],
      "stateMutability": "pure",
      "type": "function"
    },
    {
      "inputs": [
        {
          "internalType": "uint256",
          "name": "x0",
          "type": "uint256"
        },
        {
          "internalType": "uint256",
          "name": "y0",
          "type": "uint256"
        },
        {
          "internalType": "uint256",
          "name": "exp",
          "type": "uint256"
        }
      ],
      "name": "multiplyPowerBase2",
      "outputs": [
        {
          "internalType": "uint256",
          "name": "",
          "type": "uint256"
        },
        {
          "internalType": "uint256",
          "name": "",
          "type": "uint256"
        }
      ],
      "stateMutability": "pure",
      "type": "function"
    },
    {
      "inputs": [
        {
          "internalType": "uint256",
          "name": "x0",
          "type": "uint256"
        },
        {
          "internalType": "uint256",
          "name": "y0",
          "type": "uint256"
        },
        {
          "internalType": "uint256",
          "name": "scalar",
          "type": "uint256"
        }
      ],
      "name": "multiplyScalar",
      "outputs": [
        {
          "internalType": "uint256",
          "name": "x1",
          "type": "uint256"
        },
        {
          "internalType": "uint256",
          "name": "y1",
          "type": "uint256"
        }
      ],
      "stateMutability": "pure",
      "type": "function"
    },
    {
      "inputs": [
        {
          "internalType": "uint256",
          "name": "x0",
          "type": "uint256"
        },
        {
          "internalType": "uint256",
          "name": "y0",
          "type": "uint256"
        },
        {
          "internalType": "uint256",
          "name": "z0",
          "type": "uint256"
        }
      ],
      "name": "toAffinePoint",
      "outputs": [
        {
          "internalType": "uint256",
          "name": "x1",
          "type": "uint256"
        },
        {
          "internalType": "uint256",
          "name": "y1",
          "type": "uint256"
        }
      ],
      "stateMutability": "pure",
      "type": "function"
    },
    {
      "inputs": [
        {
          "internalType": "uint256",
          "name": "x0",
          "type": "uint256"
        },
        {
          "internalType": "uint256",
          "name": "y0",
          "type": "uint256"
        }
      ],
      "name": "toProjectivePoint",
      "outputs": [
        {
          "internalType": "uint256[3]",
          "name": "P",
          "type": "uint256[3]"
        }
      ],
      "stateMutability": "pure",
      "type": "function"
    },
    {
      "inputs": [
        {
          "internalType": "uint256",
          "name": "x0",
          "type": "uint256"
        },
        {
          "internalType": "uint256",
          "name": "y0",
          "type": "uint256"
        }
      ],
      "name": "twice",
      "outputs": [
        {
          "internalType": "uint256",
          "name": "",
          "type": "uint256"
        },
        {
          "internalType": "uint256",
          "name": "",
          "type": "uint256"
        }
      ],
      "stateMutability": "pure",
      "type": "function"
    },
    {
      "inputs": [
        {
          "internalType": "uint256",
          "name": "x0",
          "type": "uint256"
        },
        {
          "internalType": "uint256",
          "name": "y0",
          "type": "uint256"
        },
        {
          "internalType": "uint256",
          "name": "z0",
          "type": "uint256"
        }
      ],
      "name": "twiceProj",
      "outputs": [
        {
          "internalType": "uint256",
          "name": "x1",
          "type": "uint256"
        },
        {
          "internalType": "uint256",
          "name": "y1",
          "type": "uint256"
        },
        {
          "internalType": "uint256",
          "name": "z1",
          "type": "uint256"
        }
      ],
      "stateMutability": "pure",
      "type": "function"
    },
    {
      "inputs": [
        {
          "internalType": "bytes32",
          "name": "message",
          "type": "bytes32"
        },
        {
          "internalType": "uint256[2]",
          "name": "rs",
          "type": "uint256[2]"
        },
        {
          "internalType": "uint256[2]",
          "name": "Q",
          "type": "uint256[2]"
        }
      ],
      "name": "validateSignature",
      "outputs": [
        {
          "internalType": "bool",
          "name": "",
          "type": "bool"
        }
      ],
      "stateMutability": "pure",
      "type": "function"
    },
    {
      "inputs": [],
      "name": "zeroAffine",
      "outputs": [
        {
          "internalType": "uint256",
          "name": "x",
          "type": "uint256"
        },
        {
          "internalType": "uint256",
          "name": "y",
          "type": "uint256"
        }
      ],
      "stateMutability": "pure",
      "type": "function"
    },
    {
      "inputs": [],
      "name": "zeroProj",
      "outputs": [
        {
          "internalType": "uint256",
          "name": "x",
          "type": "uint256"
        },
        {
          "internalType": "uint256",
          "name": "y",
          "type": "uint256"
        },
        {
          "internalType": "uint256",
          "name": "z",
          "type": "uint256"
        }
      ],
      "stateMutability": "pure",
      "type": "function"
    }
  ],
  "bytecode": {
    "object": "0x608060405234801561001057600080fd5b50610f41806100206000396000f3fe608060405234801561001057600080fd5b50600436106100f55760003560e01c8063713eca2811610097578063c30cfa2d11610066578063c30cfa2d14610339578063c80edca41461035c578063e022d77c14610385578063f214aba0146103b4576100f5565b8063713eca281461027e57806372fb4a14146102e55780637ec8da8d1461030e57806384dfba4614610331576100f5565b80630b0dbcfa116100d35780630b0dbcfa146101e357806314c6706014610206578063322b24aa1461022c578063675ca04314610255576100f5565b806304e960d7146100fa57806309d3ef311461018a5780630afb4ddc146101c6575b600080fd5b610176600480360360a081101561011057600080fd5b60408051808201825283359392830192916060830191906020840190600290839083908082843760009201919091525050604080518082018252929594938181019392509060029083908390808284376000920191909152509194506103ef9350505050565b604080519115158252519081900360200190f35b6101ad600480360360408110156101a057600080fd5b508035906020013561058a565b6040805192835260208301919091528051918290030190f35b6101ad600480360360208110156101dc57600080fd5b50356105b9565b610176600480360360408110156101f957600080fd5b5080359060200135610610565b61020e610702565b60408051938452602084019290925282820152519081900360600190f35b6101ad6004803603606081101561024257600080fd5b508035906020810135906040013561070c565b6101ad6004803603606081101561026b57600080fd5b5080359060208101359060400135610753565b6102ad6004803603608081101561029457600080fd5b50803590602081013590604081013590606001356107a3565b6040518082606080838360005b838110156102d25781810151838201526020016102ba565b5050505090500191505060405180910390f35b6101ad600480360360608110156102fb57600080fd5b50803590602081013590604001356107d4565b6102ad6004803603604081101561032457600080fd5b5080359060200135610896565b6101ad6108ef565b6101766004803603604081101561034f57600080fd5b50803590602001356108f5565b61020e6004803603606081101561037257600080fd5b5080359060208101359060400135610919565b6101ad6004803603608081101561039b57600080fd5b5080359060208101359060408101359060600135610b5b565b61020e600480360360c08110156103ca57600080fd5b5080359060208101359060408101359060608101359060808101359060a00135610b90565b8151600090158061040f57508251600080516020610eec83398151915211155b8061041c57506020830151155b1561042957506000610583565b8151602083015161043a9190610610565b61044657506000610583565b60008080808061046b8860016020020151600080516020610eec833981519152610c95565b90506104c97f6b17d1f2e12c4247f8bce6e563a440f277037d812deb33a0f4a13945d898c2967f4fe342e2fe1a7f9b8ee7eb4a7c0f9e162bce33576b315ececbb6406837bf51f5600080516020610eec833981519152848d096107d4565b885160208a01518b519398509195506104f792909190600080516020610eec833981519152908590096107d4565b9094509150610504610ecd565b610510868587866107a3565b604081015190915061052b5760009650505050505050610583565b600061054c8260026020020151600160601b63ffffffff60c01b0319610c95565b9050600160601b63ffffffff60c01b0319808283098351098a51600080516020610eec833981519152909106149750505050505050505b9392505050565b600080600061059b85856001610919565b919650945090506105ad858583610753565b92509250509250929050565b6000806106077f6b17d1f2e12c4247f8bce6e563a440f277037d812deb33a0f4a13945d898c2967f4fe342e2fe1a7f9b8ee7eb4a7c0f9e162bce33576b315ececbb6406837bf51f5856107d4565b91509150915091565b600082158061062c5750600160601b63ffffffff60c01b031983145b80610635575081155b8061064d5750600160601b63ffffffff60c01b031982145b1561065a575060006106fc565b6000600160601b63ffffffff60c01b031983840990506000600160601b63ffffffff60c01b031985600160601b63ffffffff60c01b0319878809099050600160601b63ffffffff60c01b0319806bfffffffffffffffffffffffd63ffffffff60c01b0319870982089050600160601b63ffffffff60c01b03197f5ac635d8aa3a93e7b3ebbd55769886bc651d06b0cc53b0f63bce3c3e27d2604b820890501490505b92915050565b6000600181909192565b60008084846001835b8681101561073757610728848484610919565b91955093509150600101610715565b50610743838383610753565b945094505050505b935093915050565b600080600061077084600160601b63ffffffff60c01b0319610c95565b9050600160601b63ffffffff60c01b03198187099250600160601b63ffffffff60c01b0319818609915050935093915050565b6107ab610ecd565b6000806107ba87878787610b5b565b90925090506107c98282610896565b979650505050505050565b600080826107ed576107e46108ef565b9150915061074b565b826001141561080057508390508261074b565b8260021415610813576107e4858561058a565b508390508281816001806002870661082d57600094508495505b600187901c96505b861561087b57610846848484610919565b91955093509150600287066001141561086f57610867848484898986610b90565b919750955090505b600187901c9650610835565b610886868683610753565b9550955050505050935093915050565b61089e610ecd565b600160601b63ffffffff60c01b0319600160000860408201819052600160601b63ffffffff60c01b031990840981526040810151600160601b63ffffffff60c01b0319908309602082015292915050565b60008091565b600082158015610903575081155b15610910575060016106fc565b50600092915050565b600080600080600080600061092e8a8a6108f5565b1561094a5761093b610702565b96509650965050505050610b52565b600160601b63ffffffff60c01b0319888a099250600160601b63ffffffff60c01b0319600284099250600160601b63ffffffff60c01b03198a84099150600160601b63ffffffff60c01b03198983099150600160601b63ffffffff60c01b0319600283099150600160601b63ffffffff60c01b03198a8b099950600160601b63ffffffff60c01b031960038b099350600160601b63ffffffff60c01b03198889099750600160601b63ffffffff60c01b03196bfffffffffffffffffffffffd63ffffffff60c01b031989099750600160601b63ffffffff60c01b03198885089350600160601b63ffffffff60c01b03198485099050600160601b63ffffffff60c01b0319826002099950600160601b63ffffffff60c01b03198a600160601b63ffffffff60c01b03190382089050600160601b63ffffffff60c01b031981600160601b63ffffffff60c01b03190383089950600160601b63ffffffff60c01b03198a85099950600160601b63ffffffff60c01b0319838a099850600160601b63ffffffff60c01b0319898a099850600160601b63ffffffff60c01b0319896002099850600160601b63ffffffff60c01b031989600160601b63ffffffff60c01b0319038b089550600160601b63ffffffff60c01b03198184099650600160601b63ffffffff60c01b03198384099450600160601b63ffffffff60c01b03198386099450505050505b93509350939050565b6000806000610b708787600188886001610b90565b91985096509050610b82878783610753565b925092505094509492505050565b6000806000806000806000610ba58d8d6108f5565b15610bbc5789898996509650965050505050610c89565b610bc68a8a6108f5565b15610bdd578c8c8c96509650965050505050610c89565b600160601b63ffffffff60c01b0319888d099350600160601b63ffffffff60c01b03198b8a099250600160601b63ffffffff60c01b0319888e099150600160601b63ffffffff60c01b03198b8b09905080821415610c5f5782841415610c5757610c488d8d8d610919565b96509650965050505050610c89565b610c48610702565b610c7d600160601b63ffffffff60c01b0319898d0983838688610d24565b91985096509450505050505b96509650969350505050565b6000821580610ca357508183145b80610cac575081155b15610cb9575060006106fc565b81831115610cce57818381610cca57fe5b0692505b600060018385835b8115610cff57818381610ce557fe5b949594048581029094039391928383029003919050610cd6565b6000851215610d185750505050600003820390506106fc565b50929695505050505050565b600080808080808080600160601b63ffffffff60c01b03198a600160601b63ffffffff60c01b0319038a089050600160601b63ffffffff60c01b03198b600160601b63ffffffff60c01b0319038d089450600160601b63ffffffff60c01b03198586099350600160601b63ffffffff60c01b03198182099150600160601b63ffffffff60c01b03198d83099150600160601b63ffffffff60c01b03198c8c089a50600160601b63ffffffff60c01b0319848c099a50600160601b63ffffffff60c01b03198b600160601b63ffffffff60c01b03190383089150600160601b63ffffffff60c01b03198286099750600160601b63ffffffff60c01b03198585099250600160601b63ffffffff60c01b0319848d099b50600160601b63ffffffff60c01b031982600160601b63ffffffff60c01b0319038d089b50600160601b63ffffffff60c01b03198c82099050600160601b63ffffffff60c01b0319838a099850600160601b63ffffffff60c01b031989600160601b63ffffffff60c01b03190382089650600160601b63ffffffff60c01b03198d840995505050505050955095509592505050565b6040518060600160405280600390602082028036833750919291505056feffffffff00000000ffffffffffffffffbce6faada7179e84f3b9cac2fc632551a2646970667358221220b9479680e86940e423f8045413202bc4b0ef446ba9f08ed8e78145a8c911e63b64736f6c634300060c0033",
    "linkReferences": {}
  },
  "methodIdentifiers": {
    "add(uint256,uint256,uint256,uint256)": "e022d77c",
    "addAndReturnProjectivePoint(uint256,uint256,uint256,uint256)": "713eca28",
    "addProj(uint256,uint256,uint256,uint256,uint256,uint256)": "f214aba0",
    "isOnCurve(uint256,uint256)": "0b0dbcfa",
    "isZeroCurve(uint256,uint256)": "c30cfa2d",
    "multipleGeneratorByScalar(uint256)": "0afb4ddc",
    "multiplyPowerBase2(uint256,uint256,uint256)": "322b24aa",
    "multiplyScalar(uint256,uint256,uint256)": "72fb4a14",
    "toAffinePoint(uint256,uint256,uint256)": "675ca043",
    "toProjectivePoint(uint256,uint256)": "7ec8da8d",
    "twice(uint256,uint256)": "09d3ef31",
    "twiceProj(uint256,uint256,uint256)": "c80edca4",
    "validateSignature(bytes32,uint256[2],uint256[2])": "04e960d7",
    "zeroAffine()": "84dfba46",
    "zeroProj()": "14c67060"
  },
  "id": 13
}