{
  "_format": "hh-sol-artifact-1",
  "contractName": "PasskeyAccountFactory",
  "sourceName": "contracts/PasskeyAccountFactory.sol",
  "abi": [
    {
      "inputs": [
        {
          "internalType": "contract IEntryPoint",
          "name": "_entryPoint",
          "type": "address"
        }
      ],
      "stateMutability": "nonpayable",
      "type": "constructor"
    },
    {
      "inputs": [],
      "name": "accountImplementation",
      "outputs": [
        {
          "internalType": "contract PasskeyAccount",
          "name": "",
          "type": "address"
        }
      ],
      "stateMutability": "view",
      "type": "function"
    },
    {
      "inputs": [
        {
          "internalType": "address",
          "name": "owner",
          "type": "address"
        },
        {
          "internalType": "uint256",
          "name": "salt",
          "type": "uint256"
        },
        {
          "internalType": "address",
          "name": "anEllipticCurve",
          "type": "address"
        },
        {
          "internalType": "uint256[2]",
          "name": "_q",
          "type": "uint256[2]"
        }
      ],
      "name": "createAccount",
      "outputs": [
        {
          "internalType": "contract PasskeyAccount",
          "name": "ret",
          "type": "address"
        }
      ],
      "stateMutability": "nonpayable",
      "type": "function"
    },
    {
      "inputs": [
        {
          "internalType": "address",
          "name": "owner",
          "type": "address"
        },
        {
          "internalType": "uint256",
          "name": "salt",
          "type": "uint256"
        },
        {
          "internalType": "address",
          "name": "anEllipticCurve",
          "type": "address"
        },
        {
          "internalType": "uint256[2]",
          "name": "_q",
          "type": "uint256[2]"
        }
      ],
      "name": "getAddress",
      "outputs": [
        {
          "internalType": "address",
          "name": "",
          "type": "address"
        }
      ],
      "stateMutability": "view",
      "type": "function"
    }
  ],
  "bytecode": "0x60a060405234801561001057600080fd5b5060405161317c38038061317c83398101604081905261002f91610088565b8060405161003c9061007b565b6001600160a01b039091168152602001604051809103906000f080158015610068573d6000803e3d6000fd5b506001600160a01b0316608052506100b8565b61247980610d0383390190565b60006020828403121561009a57600080fd5b81516001600160a01b03811681146100b157600080fd5b9392505050565b608051610c246100df6000396000818160510152818160f101526101cb0152610c246000f3fe60806040523480156200001157600080fd5b5060043610620000465760003560e01c806311464fbe146200004b578063240192ec146200008f57806366a44a7c14620000a6575b600080fd5b620000737f000000000000000000000000000000000000000000000000000000000000000081565b6040516001600160a01b03909116815260200160405180910390f35b62000073620000a036600462000302565b620000bd565b62000073620000b736600462000302565b62000199565b600080620000ce8686868662000199565b90506001600160a01b0381163b8015620000eb5750905062000191565b8560001b7f00000000000000000000000000000000000000000000000000000000000000008887876040516024016200012793929190620003b8565b60408051601f198184030181529181526020820180516001600160e01b03166343a480b560e01b179052516200015d90620002c1565b6200016a9291906200043c565b8190604051809103906000f59050801580156200018b573d6000803e3d6000fd5b50925050505b949350505050565b6000620002788460001b60405180602001620001b590620002c1565b6020820181038252601f19601f820116604052507f00000000000000000000000000000000000000000000000000000000000000008887876040516024016200020193929190620003b8565b60408051601f19818403018152918152602080830180516001600160e01b03166343a480b560e01b17905290516200023c939291016200043c565b60408051601f19818403018152908290526200025c929160200162000480565b6040516020818303038152906040528051906020012062000281565b95945050505050565b60006200029083833062000297565b9392505050565b6000604051836040820152846020820152828152600b8101905060ff815360559020949350505050565b61073b80620004b483390190565b80356001600160a01b0381168114620002e757600080fd5b919050565b634e487b7160e01b600052604160045260246000fd5b60008060008060a085870312156200031957600080fd5b6200032485620002cf565b935060208086013593506200033c60408701620002cf565b925086607f8701126200034e57600080fd5b6040516040810181811067ffffffffffffffff82111715620003745762000374620002ec565b6040528060a08801898111156200038a57600080fd5b606089015b81811015620003a857803583529184019184016200038f565b5096999598509396509450505050565b6001600160a01b0384811682528316602080830191909152608082019060408301908460005b6002811015620003fd57815184529282019290820190600101620003de565b50505050949350505050565b60005b83811015620004265781810151838201526020016200040c565b8381111562000436576000848401525b50505050565b60018060a01b038316815260406020820152600082518060408401526200046b81606085016020870162000409565b601f01601f1916919091016060019392505050565b600083516200049481846020880162000409565b835190830190620004aa81836020880162000409565b0194935050505056fe608060405260405161073b38038061073b83398101604081905261002291610321565b61002e82826000610035565b505061043e565b61003e8361006b565b60008251118061004b5750805b156100665761006483836100ab60201b6100291760201c565b505b505050565b610074816100d7565b6040516001600160a01b038216907fbc7cd75a20ee27fd9adebab32041f755214dbc6bffa90cc0225b39da2e5c2d3b90600090a250565b60606100d08383604051806060016040528060278152602001610714602791396101a9565b9392505050565b6100ea8161022260201b6100551760201c565b6101515760405162461bcd60e51b815260206004820152602d60248201527f455243313936373a206e657720696d706c656d656e746174696f6e206973206e60448201526c1bdd08184818dbdb9d1c9858dd609a1b60648201526084015b60405180910390fd5b806101887f360894a13ba1a3210667c828492db98dca3e2076cc3735a920a3ca505d382bbc60001b61023160201b6100641760201c565b80546001600160a01b0319166001600160a01b039290921691909117905550565b6060600080856001600160a01b0316856040516101c691906103ef565b600060405180830381855af49150503d8060008114610201576040519150601f19603f3d011682016040523d82523d6000602084013e610206565b606091505b50909250905061021886838387610234565b9695505050505050565b6001600160a01b03163b151590565b90565b606083156102a357825160000361029c576001600160a01b0385163b61029c5760405162461bcd60e51b815260206004820152601d60248201527f416464726573733a2063616c6c20746f206e6f6e2d636f6e74726163740000006044820152606401610148565b50816102ad565b6102ad83836102b5565b949350505050565b8151156102c55781518083602001fd5b8060405162461bcd60e51b8152600401610148919061040b565b634e487b7160e01b600052604160045260246000fd5b60005b838110156103105781810151838201526020016102f8565b838111156100645750506000910152565b6000806040838503121561033457600080fd5b82516001600160a01b038116811461034b57600080fd5b60208401519092506001600160401b038082111561036857600080fd5b818501915085601f83011261037c57600080fd5b81518181111561038e5761038e6102df565b604051601f8201601f19908116603f011681019083821181831017156103b6576103b66102df565b816040528281528860208487010111156103cf57600080fd5b6103e08360208301602088016102f5565b80955050505050509250929050565b600082516104018184602087016102f5565b9190910192915050565b602081526000825180602084015261042a8160408501602087016102f5565b601f01601f19169190910160400192915050565b6102c78061044d6000396000f3fe60806040523661001357610011610017565b005b6100115b610027610022610067565b61009f565b565b606061004e838360405180606001604052806027815260200161026b602791396100c3565b9392505050565b6001600160a01b03163b151590565b90565b600061009a7f360894a13ba1a3210667c828492db98dca3e2076cc3735a920a3ca505d382bbc546001600160a01b031690565b905090565b3660008037600080366000845af43d6000803e8080156100be573d6000f35b3d6000fd5b6060600080856001600160a01b0316856040516100e0919061021b565b600060405180830381855af49150503d806000811461011b576040519150601f19603f3d011682016040523d82523d6000602084013e610120565b606091505b50915091506101318683838761013b565b9695505050505050565b606083156101af5782516000036101a8576001600160a01b0385163b6101a85760405162461bcd60e51b815260206004820152601d60248201527f416464726573733a2063616c6c20746f206e6f6e2d636f6e747261637400000060448201526064015b60405180910390fd5b50816101b9565b6101b983836101c1565b949350505050565b8151156101d15781518083602001fd5b8060405162461bcd60e51b815260040161019f9190610237565b60005b838110156102065781810151838201526020016101ee565b83811115610215576000848401525b50505050565b6000825161022d8184602087016101eb565b9190910192915050565b60208152600082518060208401526102568160408501602087016101eb565b601f01601f1916919091016040019291505056fe416464726573733a206c6f772d6c6576656c2064656c65676174652063616c6c206661696c6564a264697066735822122016e5b5680e983aaf8c73fb0288ec8cc0c11b060a2615733032b555895540eaa464736f6c634300080f0033416464726573733a206c6f772d6c6576656c2064656c65676174652063616c6c206661696c6564a2646970667358221220b58641acc2b70e48e6a55caad7e97a1310734d49f3e1e81c3ee8bf0906563b6964736f6c634300080f003360c0604052306080523480156200001557600080fd5b506040516200247938038062002479833981016040819052620000389162000117565b6001600160a01b03811660a0526200004f62000056565b5062000149565b600054610100900460ff1615620000c35760405162461bcd60e51b815260206004820152602760248201527f496e697469616c697a61626c653a20636f6e747261637420697320696e697469604482015266616c697a696e6760c81b606482015260840160405180910390fd5b60005460ff9081161462000115576000805460ff191660ff9081179091556040519081527f7f26b83ff96e1f2b6a682f133852f6798a09c465da95921460cefb38474024989060200160405180910390a15b565b6000602082840312156200012a57600080fd5b81516001600160a01b03811681146200014257600080fd5b9392505050565b60805160a0516122bd620001bc6000396000818161039b015281816108ca0152818161094b01528181610c3001528181610cc801528181610d940152818161100b01526112ff01526000818161063c0152818161067c015281816109dc01528181610a1c0152610aaf01526122bd6000f3fe60806040526004361061014e5760003560e01c806382c1fb6a116100b6578063bc197c811161006f578063bc197c8114610414578063c399ec8814610443578063d087d28814610458578063d259183d1461046d578063f23a6e611461048d578063f83b5dce146104ba57600080fd5b806382c1fb6a146103065780638da5cb5b146103345780639a486cc71461036c578063b0d691fe1461038c578063b61d27f6146103bf578063bbcf334b146103df57600080fd5b806343a480b51161010857806343a480b51461026957806349e894d8146102895780634a58db19146102b65780634d44560d146102be5780634f1ef286146102de57806352d1902d146102f157600080fd5b806223de291461015a57806301ffc9a714610181578063150b7a02146101b657806318dfb3c7146101fb5780633659cfe61461021b5780633a871cdd1461023b57600080fd5b3661015557005b600080fd5b34801561016657600080fd5b5061017f610175366004611839565b5050505050505050565b005b34801561018d57600080fd5b506101a161019c3660046118e9565b6104e0565b60405190151581526020015b60405180910390f35b3480156101c257600080fd5b506101e26101d1366004611913565b630a85bd0160e11b95945050505050565b6040516001600160e01b031990911681526020016101ad565b34801561020757600080fd5b5061017f6102163660046119c9565b610532565b34801561022757600080fd5b5061017f610236366004611a34565b610632565b34801561024757600080fd5b5061025b610256366004611a51565b610711565b6040519081526020016101ad565b34801561027557600080fd5b5061017f610284366004611aba565b610737565b34801561029557600080fd5b506102a96102a4366004611b5e565b61087c565b6040516101ad9190611bcf565b61017f6108c8565b3480156102ca57600080fd5b5061017f6102d9366004611be2565b610941565b61017f6102ec366004611c9a565b6109d2565b3480156102fd57600080fd5b5061025b610aa2565b34801561031257600080fd5b50610326610321366004611ce9565b610b55565b6040516101ad929190611d2a565b34801561034057600080fd5b50600354610354906001600160a01b031681565b6040516001600160a01b0390911681526020016101ad565b34801561037857600080fd5b5061025b610387366004611b5e565b610b72565b34801561039857600080fd5b507f0000000000000000000000000000000000000000000000000000000000000000610354565b3480156103cb57600080fd5b5061017f6103da366004611d59565b610b89565b3480156103eb57600080fd5b506103ff6103fa366004611ce9565b610bd2565b604080519283526020830191909152016101ad565b34801561042057600080fd5b506101e261042f366004611da8565b63bc197c8160e01b98975050505050505050565b34801561044f57600080fd5b5061025b610c10565b34801561046457600080fd5b5061025b610ca1565b34801561047957600080fd5b506101a1610488366004611e45565b610cf7565b34801561049957600080fd5b506101e26104a8366004611e9e565b63f23a6e6160e01b9695505050505050565b3480156104c657600080fd5b50600054610354906201000090046001600160a01b031681565b60006001600160e01b03198216630a85bd0160e11b148061051157506001600160e01b03198216630271189760e51b145b8061052c57506001600160e01b031982166301ffc9a760e01b145b92915050565b61053a610d89565b8281146105845760405162461bcd60e51b815260206004820152601360248201527277726f6e67206172726179206c656e6774687360681b60448201526064015b60405180910390fd5b60005b8381101561062b576106198585838181106105a4576105a4611f19565b90506020020160208101906105b99190611a34565b60008585858181106105cd576105cd611f19565b90506020028101906105df9190611f2f565b8080601f016020809104026020016040519081016040528093929190818152602001838380828437600092019190915250610e1892505050565b8061062381611f8b565b915050610587565b5050505050565b6001600160a01b037f000000000000000000000000000000000000000000000000000000000000000016300361067a5760405162461bcd60e51b815260040161057b90611fa4565b7f00000000000000000000000000000000000000000000000000000000000000006001600160a01b03166106c3600080516020612241833981519152546001600160a01b031690565b6001600160a01b0316146106e95760405162461bcd60e51b815260040161057b90611ff0565b6106f281610e88565b6040805160008082526020820190925261070e91839190610e90565b50565b600061071b611000565b6107258484611078565b90506107308261128c565b9392505050565b600054610100900460ff16158080156107575750600054600160ff909116105b806107715750303b158015610771575060005460ff166001145b6107d45760405162461bcd60e51b815260206004820152602e60248201527f496e697469616c697a61626c653a20636f6e747261637420697320616c72656160448201526d191e481a5b9a5d1a585b1a5e995960921b606482015260840161057b565b6000805460ff1916600117905580156107f7576000805461ff0019166101001790555b610800846112d9565b6000805462010000600160b01b031916620100006001600160a01b0386160217905561082f6001836002611790565b508015610876576000805461ff0019169055604051600181527f7f26b83ff96e1f2b6a682f133852f6798a09c465da95921460cefb38474024989060200160405180910390a15b50505050565b606061088782611349565b610894608084901b611349565b60405161060f60f31b6020820152602281019290925260428201526062016040516020818303038152906040529050919050565b7f000000000000000000000000000000000000000000000000000000000000000060405163b760faf960e01b81523060048201526001600160a01b03919091169063b760faf99034906024016000604051808303818588803b15801561092d57600080fd5b505af115801561062b573d6000803e3d6000fd5b6109496114fb565b7f000000000000000000000000000000000000000000000000000000000000000060405163040b850f60e31b81526001600160a01b03848116600483015260248201849052919091169063205c287890604401600060405180830381600087803b1580156109b657600080fd5b505af11580156109ca573d6000803e3d6000fd5b505050505050565b6001600160a01b037f0000000000000000000000000000000000000000000000000000000000000000163003610a1a5760405162461bcd60e51b815260040161057b90611fa4565b7f00000000000000000000000000000000000000000000000000000000000000006001600160a01b0316610a63600080516020612241833981519152546001600160a01b031690565b6001600160a01b031614610a895760405162461bcd60e51b815260040161057b90611ff0565b610a9282610e88565b610a9e82826001610e90565b5050565b6000306001600160a01b037f00000000000000000000000000000000000000000000000000000000000000001614610b425760405162461bcd60e51b815260206004820152603860248201527f555550535570677261646561626c653a206d757374206e6f742062652063616c60448201527f6c6564207468726f7567682064656c656761746563616c6c0000000000000000606482015260840161057b565b5060008051602061224183398151915290565b366000610b66607c6024858761203c565b915091505b9250929050565b60018160028110610b8257600080fd5b0154905081565b610b91610d89565b610876848484848080601f016020809104026020016040519081016040528093929190818152602001838380828437600092019190915250610e1892505050565b600080610be2602082858761203c565b610beb91612066565b9150610bfb60406020858761203c565b610c0491612066565b60001c90509250929050565b6040516370a0823160e01b81523060048201526000906001600160a01b037f000000000000000000000000000000000000000000000000000000000000000016906370a08231906024015b602060405180830381865afa158015610c78573d6000803e3d6000fd5b505050506040513d601f19601f82011682018060405250810190610c9c9190612084565b905090565b604051631aab3f0d60e11b8152306004820152600060248201819052906001600160a01b037f000000000000000000000000000000000000000000000000000000000000000016906335567e1a90604401610c5b565b60008151835114610d0a5750600061052c565b60005b8351811015610d7f57828181518110610d2857610d28611f19565b602001015160f81c60f81b6001600160f81b031916848281518110610d4f57610d4f611f19565b01602001516001600160f81b03191614610d6d57600091505061052c565b80610d7781611f8b565b915050610d0d565b5060019392505050565b336001600160a01b037f0000000000000000000000000000000000000000000000000000000000000000161480610dca57506003546001600160a01b031633145b610e165760405162461bcd60e51b815260206004820181905260248201527f6163636f756e743a206e6f74204f776e6572206f7220456e747279506f696e74604482015260640161057b565b565b600080846001600160a01b03168484604051610e34919061209d565b60006040518083038185875af1925050503d8060008114610e71576040519150601f19603f3d011682016040523d82523d6000602084013e610e76565b606091505b50915091508161062b57805160208201fd5b61070e6114fb565b7f4910fdfa16fed3260ed0e7147f7cc6da11a60208b5b9406d12a635614ffd91435460ff1615610ec857610ec38361154c565b505050565b826001600160a01b03166352d1902d6040518163ffffffff1660e01b8152600401602060405180830381865afa925050508015610f22575060408051601f3d908101601f19168201909252610f1f91810190612084565b60015b610f855760405162461bcd60e51b815260206004820152602e60248201527f45524331393637557067726164653a206e657720696d706c656d656e7461746960448201526d6f6e206973206e6f74205555505360901b606482015260840161057b565b6000805160206122418339815191528114610ff45760405162461bcd60e51b815260206004820152602960248201527f45524331393637557067726164653a20756e737570706f727465642070726f786044820152681a58589b195555525160ba1b606482015260840161057b565b50610ec38383836115e8565b336001600160a01b037f00000000000000000000000000000000000000000000000000000000000000001614610e165760405162461bcd60e51b815260206004820152601c60248201527f6163636f756e743a206e6f742066726f6d20456e747279506f696e7400000000604482015260640161057b565b600080808061108b610140870187611f2f565b81019061109891906120b9565b925092509250600080306001600160a01b031663bbcf334b866040518263ffffffff1660e01b81526004016110cd9190611bcf565b6040805180830381865afa1580156110e9573d6000803e3d6000fd5b505050506040513d601f19601f8201168201806040525081019061110d9190612140565b915091506000600285604051611123919061209d565b602060405180830381855afa158015611140573d6000803e3d6000fd5b5050506040513d601f19601f820116820180604052508101906111639190612084565b90506000848260405160200161117a929190612164565b6040516020818303038152906040529050600060028260405161119d919061209d565b602060405180830381855afa1580156111ba573d6000803e3d6000fd5b5050506040513d601f19601f820116820180604052508101906111dd9190612084565b600080546040805180820182528981526020810189905290516304e960d760e01b81529394509192620100009091046001600160a01b0316916304e960d79161122d918691600190600401612186565b602060405180830381865afa15801561124a573d6000803e3d6000fd5b505050506040513d601f19601f8201168201806040525081019061126e91906121e7565b90508061127a57600080fd5b5060009b9a5050505050505050505050565b801561070e57604051600090339060001990849084818181858888f193505050503d806000811461062b576040519150601f19603f3d011682016040523d82523d6000602084013e61062b565b600380546001600160a01b0319166001600160a01b0383811691821790925560405190917f000000000000000000000000000000000000000000000000000000000000000016907f47e55c76e7a6f1fd8996a1da8008c1ea29699cca35e7bcd057f2dec313b6e5de90600090a350565b7aff00000000000000ff00000000000000ff00000000000000ff00006bffffffff0000000000000000604083901c90811663ffffffff60c01b84161760201c63ffffffff60601b919091166001600160e01b031984161717601081901c9182167eff00000000000000ff00000000000000ff00000000000000ff000000000000821617600890811c7bff00000000000000ff00000000000000ff00000000000000ff000000939093167fff00000000000000ff00000000000000ff00000000000000ff000000000000009290921691909117919091179081901c7e0f000f000f000f000f000f000f000f000f000f000f000f000f000f000f000f167f0f000f000f000f000f000f000f000f000f000f000f000f000f000f000f000f00600492831c161790611497827f0606060606060606060606060606060606060606060606060606060606060606612209565b901c7f0f0f0f0f0f0f0f0f0f0f0f0f0f0f0f0f0f0f0f0f0f0f0f0f0f0f0f0f0f0f0f0f1660076114c79190612221565b6114f1827f3030303030303030303030303030303030303030303030303030303030303030612209565b61052c9190612209565b6003546001600160a01b031633148061151357503330145b610e165760405162461bcd60e51b815260206004820152600a60248201526937b7363c9037bbb732b960b11b604482015260640161057b565b6001600160a01b0381163b6115b95760405162461bcd60e51b815260206004820152602d60248201527f455243313936373a206e657720696d706c656d656e746174696f6e206973206e60448201526c1bdd08184818dbdb9d1c9858dd609a1b606482015260840161057b565b60008051602061224183398151915280546001600160a01b0319166001600160a01b0392909216919091179055565b6115f18361160d565b6000825111806115fe5750805b15610ec357610876838361164d565b6116168161154c565b6040516001600160a01b038216907fbc7cd75a20ee27fd9adebab32041f755214dbc6bffa90cc0225b39da2e5c2d3b90600090a250565b60606107308383604051806060016040528060278152602001612261602791396060600080856001600160a01b03168560405161168a919061209d565b600060405180830381855af49150503d80600081146116c5576040519150601f19603f3d011682016040523d82523d6000602084013e6116ca565b606091505b50915091506116db868383876116e5565b9695505050505050565b6060831561175457825160000361174d576001600160a01b0385163b61174d5760405162461bcd60e51b815260206004820152601d60248201527f416464726573733a2063616c6c20746f206e6f6e2d636f6e7472616374000000604482015260640161057b565b508161175e565b61175e8383611766565b949350505050565b8151156117765781518083602001fd5b8060405162461bcd60e51b815260040161057b9190611bcf565b82600281019282156117be579160200282015b828111156117be5782518255916020019190600101906117a3565b506117ca9291506117ce565b5090565b5b808211156117ca57600081556001016117cf565b6001600160a01b038116811461070e57600080fd5b60008083601f84011261180a57600080fd5b5081356001600160401b0381111561182157600080fd5b602083019150836020828501011115610b6b57600080fd5b60008060008060008060008060c0898b03121561185557600080fd5b8835611860816117e3565b97506020890135611870816117e3565b96506040890135611880816117e3565b95506060890135945060808901356001600160401b03808211156118a357600080fd5b6118af8c838d016117f8565b909650945060a08b01359150808211156118c857600080fd5b506118d58b828c016117f8565b999c989b5096995094979396929594505050565b6000602082840312156118fb57600080fd5b81356001600160e01b03198116811461073057600080fd5b60008060008060006080868803121561192b57600080fd5b8535611936816117e3565b94506020860135611946816117e3565b93506040860135925060608601356001600160401b0381111561196857600080fd5b611974888289016117f8565b969995985093965092949392505050565b60008083601f84011261199757600080fd5b5081356001600160401b038111156119ae57600080fd5b6020830191508360208260051b8501011115610b6b57600080fd5b600080600080604085870312156119df57600080fd5b84356001600160401b03808211156119f657600080fd5b611a0288838901611985565b90965094506020870135915080821115611a1b57600080fd5b50611a2887828801611985565b95989497509550505050565b600060208284031215611a4657600080fd5b8135610730816117e3565b600080600060608486031215611a6657600080fd5b83356001600160401b03811115611a7c57600080fd5b84016101608187031215611a8f57600080fd5b95602085013595506040909401359392505050565b634e487b7160e01b600052604160045260246000fd5b600080600060808486031215611acf57600080fd5b8335611ada816117e3565b9250602084810135611aeb816117e3565b9250605f85018613611afc57600080fd5b604051604081018181106001600160401b0382111715611b1e57611b1e611aa4565b604052806080870188811115611b3357600080fd5b604088015b81811015611b4f5780358352918401918401611b38565b50505080925050509250925092565b600060208284031215611b7057600080fd5b5035919050565b60005b83811015611b92578181015183820152602001611b7a565b838111156108765750506000910152565b60008151808452611bbb816020860160208601611b77565b601f01601f19169290920160200192915050565b6020815260006107306020830184611ba3565b60008060408385031215611bf557600080fd5b8235611c00816117e3565b946020939093013593505050565b600082601f830112611c1f57600080fd5b81356001600160401b0380821115611c3957611c39611aa4565b604051601f8301601f19908116603f01168101908282118183101715611c6157611c61611aa4565b81604052838152866020858801011115611c7a57600080fd5b836020870160208301376000602085830101528094505050505092915050565b60008060408385031215611cad57600080fd5b8235611cb8816117e3565b915060208301356001600160401b03811115611cd357600080fd5b611cdf85828601611c0e565b9150509250929050565b60008060208385031215611cfc57600080fd5b82356001600160401b03811115611d1257600080fd5b611d1e858286016117f8565b90969095509350505050565b60208152816020820152818360408301376000818301604090810191909152601f909201601f19160101919050565b60008060008060608587031215611d6f57600080fd5b8435611d7a816117e3565b93506020850135925060408501356001600160401b03811115611d9c57600080fd5b611a28878288016117f8565b60008060008060008060008060a0898b031215611dc457600080fd5b8835611dcf816117e3565b97506020890135611ddf816117e3565b965060408901356001600160401b0380821115611dfb57600080fd5b611e078c838d01611985565b909850965060608b0135915080821115611e2057600080fd5b611e2c8c838d01611985565b909650945060808b01359150808211156118c857600080fd5b60008060408385031215611e5857600080fd5b82356001600160401b0380821115611e6f57600080fd5b611e7b86838701611c0e565b93506020850135915080821115611e9157600080fd5b50611cdf85828601611c0e565b60008060008060008060a08789031215611eb757600080fd5b8635611ec2816117e3565b95506020870135611ed2816117e3565b9450604087013593506060870135925060808701356001600160401b03811115611efb57600080fd5b611f0789828a016117f8565b979a9699509497509295939492505050565b634e487b7160e01b600052603260045260246000fd5b6000808335601e19843603018112611f4657600080fd5b8301803591506001600160401b03821115611f6057600080fd5b602001915036819003821315610b6b57600080fd5b634e487b7160e01b600052601160045260246000fd5b600060018201611f9d57611f9d611f75565b5060010190565b6020808252602c908201527f46756e6374696f6e206d7573742062652063616c6c6564207468726f7567682060408201526b19195b1959d85d1958d85b1b60a21b606082015260800190565b6020808252602c908201527f46756e6374696f6e206d7573742062652063616c6c6564207468726f7567682060408201526b6163746976652070726f787960a01b606082015260800190565b6000808585111561204c57600080fd5b8386111561205957600080fd5b5050820193919092039150565b8035602083101561052c57600019602084900360031b1b1692915050565b60006020828403121561209657600080fd5b5051919050565b600082516120af818460208701611b77565b9190910192915050565b6000806000606084860312156120ce57600080fd5b83356001600160401b03808211156120e557600080fd5b6120f187838801611c0e565b9450602086013591508082111561210757600080fd5b61211387838801611c0e565b9350604086013591508082111561212957600080fd5b5061213686828701611c0e565b9150509250925092565b6000806040838503121561215357600080fd5b505080516020909101519092909150565b60008351612176818460208801611b77565b9190910191825250602001919050565b83815260a0810160208083018560005b60028110156121b357815183529183019190830190600101612196565b505050606083018460005b60028110156121db578154835291830191600191820191016121be565b50505050949350505050565b6000602082840312156121f957600080fd5b8151801515811461073057600080fd5b6000821982111561221c5761221c611f75565b500190565b600081600019048311821515161561223b5761223b611f75565b50029056fe360894a13ba1a3210667c828492db98dca3e2076cc3735a920a3ca505d382bbc416464726573733a206c6f772d6c6576656c2064656c65676174652063616c6c206661696c6564a2646970667358221220081b6f731a5839582649eac1093b45bc4e44fe1a457757186085c37bf2e80f1a64736f6c634300080f0033",
  "linkReferences": {},
  "deployedLinkReferences": {}
}