{
  "abi": [
    {
      "inputs": [
        {
          "internalType": "contract IEntryPoint",
          "name": "anEntryPoint",
          "type": "address"
        }
      ],
      "stateMutability": "nonpayable",
      "type": "constructor"
    },
    {
      "anonymous": false,
      "inputs": [
        {
          "indexed": false,
          "internalType": "address",
          "name": "previousAdmin",
          "type": "address"
        },
        {
          "indexed": false,
          "internalType": "address",
          "name": "newAdmin",
          "type": "address"
        }
      ],
      "name": "AdminChanged",
      "type": "event"
    },
    {
      "anonymous": false,
      "inputs": [
        {
          "indexed": true,
          "internalType": "address",
          "name": "beacon",
          "type": "address"
        }
      ],
      "name": "BeaconUpgraded",
      "type": "event"
    },
    {
      "anonymous": false,
      "inputs": [
        {
          "indexed": false,
          "internalType": "uint8",
          "name": "version",
          "type": "uint8"
        }
      ],
      "name": "Initialized",
      "type": "event"
    },
    {
      "anonymous": false,
      "inputs": [
        {
          "indexed": true,
          "internalType": "contract IEntryPoint",
          "name": "entryPoint",
          "type": "address"
        },
        {
          "indexed": true,
          "internalType": "address",
          "name": "owner",
          "type": "address"
        }
      ],
      "name": "SimpleAccountInitialized",
      "type": "event"
    },
    {
      "anonymous": false,
      "inputs": [
        {
          "indexed": true,
          "internalType": "address",
          "name": "implementation",
          "type": "address"
        }
      ],
      "name": "Upgraded",
      "type": "event"
    },
    {
      "inputs": [
        {
          "internalType": "bytes",
          "name": "signature",
          "type": "bytes"
        }
      ],
      "name": "_getRSValues",
      "outputs": [
        {
          "internalType": "uint256",
          "name": "r",
          "type": "uint256"
        },
        {
          "internalType": "uint256",
          "name": "s",
          "type": "uint256"
        }
      ],
      "stateMutability": "pure",
      "type": "function"
    },
    {
      "inputs": [],
      "name": "addDeposit",
      "outputs": [],
      "stateMutability": "payable",
      "type": "function"
    },
    {
      "inputs": [
        {
          "internalType": "bytes",
          "name": "b1",
          "type": "bytes"
        },
        {
          "internalType": "bytes",
          "name": "b2",
          "type": "bytes"
        }
      ],
      "name": "compareBytes",
      "outputs": [
        {
          "internalType": "bool",
          "name": "",
          "type": "bool"
        }
      ],
      "stateMutability": "pure",
      "type": "function"
    },
    {
      "inputs": [],
      "name": "ec",
      "outputs": [
        {
          "internalType": "address",
          "name": "",
          "type": "address"
        }
      ],
      "stateMutability": "view",
      "type": "function"
    },
    {
      "inputs": [],
      "name": "entryPoint",
      "outputs": [
        {
          "internalType": "contract IEntryPoint",
          "name": "",
          "type": "address"
        }
      ],
      "stateMutability": "view",
      "type": "function"
    },
    {
      "inputs": [
        {
          "internalType": "address",
          "name": "dest",
          "type": "address"
        },
        {
          "internalType": "uint256",
          "name": "value",
          "type": "uint256"
        },
        {
          "internalType": "bytes",
          "name": "func",
          "type": "bytes"
        }
      ],
      "name": "execute",
      "outputs": [],
      "stateMutability": "nonpayable",
      "type": "function"
    },
    {
      "inputs": [
        {
          "internalType": "address[]",
          "name": "dest",
          "type": "address[]"
        },
        {
          "internalType": "bytes[]",
          "name": "func",
          "type": "bytes[]"
        }
      ],
      "name": "executeBatch",
      "outputs": [],
      "stateMutability": "nonpayable",
      "type": "function"
    },
    {
      "inputs": [],
      "name": "getDeposit",
      "outputs": [
        {
          "internalType": "uint256",
          "name": "",
          "type": "uint256"
        }
      ],
      "stateMutability": "view",
      "type": "function"
    },
    {
      "inputs": [],
      "name": "getNonce",
      "outputs": [
        {
          "internalType": "uint256",
          "name": "",
          "type": "uint256"
        }
      ],
      "stateMutability": "view",
      "type": "function"
    },
    {
      "inputs": [
        {
          "internalType": "bytes",
          "name": "clientDataJSON",
          "type": "bytes"
        }
      ],
      "name": "getRequestIdFromClientDataJSON",
      "outputs": [
        {
          "internalType": "bytes",
          "name": "",
          "type": "bytes"
        }
      ],
      "stateMutability": "pure",
      "type": "function"
    },
    {
      "inputs": [
        {
          "internalType": "address",
          "name": "anOwner",
          "type": "address"
        },
        {
          "internalType": "address",
          "name": "anEllipticCurve",
          "type": "address"
        },
        {
          "internalType": "uint256[2]",
          "name": "_q",
          "type": "uint256[2]"
        }
      ],
      "name": "initialize",
      "outputs": [],
      "stateMutability": "nonpayable",
      "type": "function"
    },
    {
      "inputs": [
        {
          "internalType": "address",
          "name": "",
          "type": "address"
        },
        {
          "internalType": "address",
          "name": "",
          "type": "address"
        },
        {
          "internalType": "uint256[]",
          "name": "",
          "type": "uint256[]"
        },
        {
          "internalType": "uint256[]",
          "name": "",
          "type": "uint256[]"
        },
        {
          "internalType": "bytes",
          "name": "",
          "type": "bytes"
        }
      ],
      "name": "onERC1155BatchReceived",
      "outputs": [
        {
          "internalType": "bytes4",
          "name": "",
          "type": "bytes4"
        }
      ],
      "stateMutability": "pure",
      "type": "function"
    },
    {
      "inputs": [
        {
          "internalType": "address",
          "name": "",
          "type": "address"
        },
        {
          "internalType": "address",
          "name": "",
          "type": "address"
        },
        {
          "internalType": "uint256",
          "name": "",
          "type": "uint256"
        },
        {
          "internalType": "uint256",
          "name": "",
          "type": "uint256"
        },
        {
          "internalType": "bytes",
          "name": "",
          "type": "bytes"
        }
      ],
      "name": "onERC1155Received",
      "outputs": [
        {
          "internalType": "bytes4",
          "name": "",
          "type": "bytes4"
        }
      ],
      "stateMutability": "pure",
      "type": "function"
    },
    {
      "inputs": [
        {
          "internalType": "address",
          "name": "",
          "type": "address"
        },
        {
          "internalType": "address",
          "name": "",
          "type": "address"
        },
        {
          "internalType": "uint256",
          "name": "",
          "type": "uint256"
        },
        {
          "internalType": "bytes",
          "name": "",
          "type": "bytes"
        }
      ],
      "name": "onERC721Received",
      "outputs": [
        {
          "internalType": "bytes4",
          "name": "",
          "type": "bytes4"
        }
      ],
      "stateMutability": "pure",
      "type": "function"
    },
    {
      "inputs": [],
      "name": "owner",
      "outputs": [
        {
          "internalType": "address",
          "name": "",
          "type": "address"
        }
      ],
      "stateMutability": "view",
      "type": "function"
    },
    {
      "inputs": [],
      "name": "proxiableUUID",
      "outputs": [
        {
          "internalType": "bytes32",
          "name": "",
          "type": "bytes32"
        }
      ],
      "stateMutability": "view",
      "type": "function"
    },
    {
      "inputs": [
        {
          "internalType": "uint256",
          "name": "",
          "type": "uint256"
        }
      ],
      "name": "q",
      "outputs": [
        {
          "internalType": "uint256",
          "name": "",
          "type": "uint256"
        }
      ],
      "stateMutability": "view",
      "type": "function"
    },
    {
      "inputs": [
        {
          "internalType": "bytes4",
          "name": "interfaceId",
          "type": "bytes4"
        }
      ],
      "name": "supportsInterface",
      "outputs": [
        {
          "internalType": "bool",
          "name": "",
          "type": "bool"
        }
      ],
      "stateMutability": "view",
      "type": "function"
    },
    {
      "inputs": [
        {
          "internalType": "bytes32",
          "name": "data",
          "type": "bytes32"
        }
      ],
      "name": "toHex",
      "outputs": [
        {
          "internalType": "string",
          "name": "",
          "type": "string"
        }
      ],
      "stateMutability": "pure",
      "type": "function"
    },
    {
      "inputs": [
        {
          "internalType": "address",
          "name": "",
          "type": "address"
        },
        {
          "internalType": "address",
          "name": "",
          "type": "address"
        },
        {
          "internalType": "address",
          "name": "",
          "type": "address"
        },
        {
          "internalType": "uint256",
          "name": "",
          "type": "uint256"
        },
        {
          "internalType": "bytes",
          "name": "",
          "type": "bytes"
        },
        {
          "internalType": "bytes",
          "name": "",
          "type": "bytes"
        }
      ],
      "name": "tokensReceived",
      "outputs": [],
      "stateMutability": "pure",
      "type": "function"
    },
    {
      "inputs": [
        {
          "internalType": "address",
          "name": "newImplementation",
          "type": "address"
        }
      ],
      "name": "upgradeTo",
      "outputs": [],
      "stateMutability": "nonpayable",
      "type": "function"
    },
    {
      "inputs": [
        {
          "internalType": "address",
          "name": "newImplementation",
          "type": "address"
        },
        {
          "internalType": "bytes",
          "name": "data",
          "type": "bytes"
        }
      ],
      "name": "upgradeToAndCall",
      "outputs": [],
      "stateMutability": "payable",
      "type": "function"
    },
    {
      "inputs": [
        {
          "components": [
            {
              "internalType": "address",
              "name": "sender",
              "type": "address"
            },
            {
              "internalType": "uint256",
              "name": "nonce",
              "type": "uint256"
            },
            {
              "internalType": "bytes",
              "name": "initCode",
              "type": "bytes"
            },
            {
              "internalType": "bytes",
              "name": "callData",
              "type": "bytes"
            },
            {
              "internalType": "uint256",
              "name": "callGasLimit",
              "type": "uint256"
            },
            {
              "internalType": "uint256",
              "name": "verificationGasLimit",
              "type": "uint256"
            },
            {
              "internalType": "uint256",
              "name": "preVerificationGas",
              "type": "uint256"
            },
            {
              "internalType": "uint256",
              "name": "maxFeePerGas",
              "type": "uint256"
            },
            {
              "internalType": "uint256",
              "name": "maxPriorityFeePerGas",
              "type": "uint256"
            },
            {
              "internalType": "bytes",
              "name": "paymasterAndData",
              "type": "bytes"
            },
            {
              "internalType": "bytes",
              "name": "signature",
              "type": "bytes"
            }
          ],
          "internalType": "struct UserOperation",
          "name": "userOp",
          "type": "tuple"
        },
        {
          "internalType": "bytes32",
          "name": "userOpHash",
          "type": "bytes32"
        },
        {
          "internalType": "uint256",
          "name": "missingAccountFunds",
          "type": "uint256"
        }
      ],
      "name": "validateUserOp",
      "outputs": [
        {
          "internalType": "uint256",
          "name": "validationData",
          "type": "uint256"
        }
      ],
      "stateMutability": "nonpayable",
      "type": "function"
    },
    {
      "inputs": [
        {
          "internalType": "address payable",
          "name": "withdrawAddress",
          "type": "address"
        },
        {
          "internalType": "uint256",
          "name": "amount",
          "type": "uint256"
        }
      ],
      "name": "withdrawDepositTo",
      "outputs": [],
      "stateMutability": "nonpayable",
      "type": "function"
    },
    {
      "stateMutability": "payable",
      "type": "receive"
    }
  ],
  "bytecode": {
    "object": "0x60c0604052306080523480156200001557600080fd5b506040516200246438038062002464833981016040819052620000389162000117565b6001600160a01b03811660a0526200004f62000056565b5062000149565b600054610100900460ff1615620000c35760405162461bcd60e51b815260206004820152602760248201527f496e697469616c697a61626c653a20636f6e747261637420697320696e697469604482015266616c697a696e6760c81b606482015260840160405180910390fd5b60005460ff9081161462000115576000805460ff191660ff9081179091556040519081527f7f26b83ff96e1f2b6a682f133852f6798a09c465da95921460cefb38474024989060200160405180910390a15b565b6000602082840312156200012a57600080fd5b81516001600160a01b03811681146200014257600080fd5b9392505050565b60805160a0516122a8620001bc6000396000818161039b015281816108ca0152818161094b01528181610c3001528181610cc801528181610d940152818161100b01526112ff01526000818161063c0152818161067c015281816109dc01528181610a1c0152610aaf01526122a86000f3fe60806040526004361061014e5760003560e01c806382c1fb6a116100b6578063bc197c811161006f578063bc197c8114610414578063c399ec8814610443578063d087d28814610458578063d259183d1461046d578063f23a6e611461048d578063f83b5dce146104ba57600080fd5b806382c1fb6a146103065780638da5cb5b146103345780639a486cc71461036c578063b0d691fe1461038c578063b61d27f6146103bf578063bbcf334b146103df57600080fd5b806343a480b51161010857806343a480b51461026957806349e894d8146102895780634a58db19146102b65780634d44560d146102be5780634f1ef286146102de57806352d1902d146102f157600080fd5b806223de291461015a57806301ffc9a714610181578063150b7a02146101b657806318dfb3c7146101fb5780633659cfe61461021b5780633a871cdd1461023b57600080fd5b3661015557005b600080fd5b34801561016657600080fd5b5061017f610175366004611839565b5050505050505050565b005b34801561018d57600080fd5b506101a161019c3660046118e9565b6104e0565b60405190151581526020015b60405180910390f35b3480156101c257600080fd5b506101e26101d1366004611913565b630a85bd0160e11b95945050505050565b6040516001600160e01b031990911681526020016101ad565b34801561020757600080fd5b5061017f6102163660046119c9565b610532565b34801561022757600080fd5b5061017f610236366004611a34565b610632565b34801561024757600080fd5b5061025b610256366004611a51565b610711565b6040519081526020016101ad565b34801561027557600080fd5b5061017f610284366004611aba565b610737565b34801561029557600080fd5b506102a96102a4366004611b5e565b61087c565b6040516101ad9190611bc7565b61017f6108c8565b3480156102ca57600080fd5b5061017f6102d9366004611bda565b610941565b61017f6102ec366004611c92565b6109d2565b3480156102fd57600080fd5b5061025b610aa2565b34801561031257600080fd5b50610326610321366004611ce1565b610b55565b6040516101ad929190611d22565b34801561034057600080fd5b50600354610354906001600160a01b031681565b6040516001600160a01b0390911681526020016101ad565b34801561037857600080fd5b5061025b610387366004611b5e565b610b72565b34801561039857600080fd5b507f0000000000000000000000000000000000000000000000000000000000000000610354565b3480156103cb57600080fd5b5061017f6103da366004611d51565b610b89565b3480156103eb57600080fd5b506103ff6103fa366004611ce1565b610bd2565b604080519283526020830191909152016101ad565b34801561042057600080fd5b506101e261042f366004611da0565b63bc197c8160e01b98975050505050505050565b34801561044f57600080fd5b5061025b610c10565b34801561046457600080fd5b5061025b610ca1565b34801561047957600080fd5b506101a1610488366004611e3d565b610cf7565b34801561049957600080fd5b506101e26104a8366004611e96565b63f23a6e6160e01b9695505050505050565b3480156104c657600080fd5b50600054610354906201000090046001600160a01b031681565b60006001600160e01b03198216630a85bd0160e11b148061051157506001600160e01b03198216630271189760e51b145b8061052c57506001600160e01b031982166301ffc9a760e01b145b92915050565b61053a610d89565b8281146105845760405162461bcd60e51b815260206004820152601360248201527277726f6e67206172726179206c656e6774687360681b60448201526064015b60405180910390fd5b60005b8381101561062b576106198585838181106105a4576105a4611f11565b90506020020160208101906105b99190611a34565b60008585858181106105cd576105cd611f11565b90506020028101906105df9190611f27565b8080601f016020809104026020016040519081016040528093929190818152602001838380828437600092019190915250610e1892505050565b8061062381611f83565b915050610587565b5050505050565b6001600160a01b037f000000000000000000000000000000000000000000000000000000000000000016300361067a5760405162461bcd60e51b815260040161057b90611f9c565b7f00000000000000000000000000000000000000000000000000000000000000006001600160a01b03166106c360008051602061222c833981519152546001600160a01b031690565b6001600160a01b0316146106e95760405162461bcd60e51b815260040161057b90611fe8565b6106f281610e88565b6040805160008082526020820190925261070e91839190610e90565b50565b600061071b611000565b6107258484611078565b90506107308261128c565b9392505050565b600054610100900460ff16158080156107575750600054600160ff909116105b806107715750303b158015610771575060005460ff166001145b6107d45760405162461bcd60e51b815260206004820152602e60248201527f496e697469616c697a61626c653a20636f6e747261637420697320616c72656160448201526d191e481a5b9a5d1a585b1a5e995960921b606482015260840161057b565b6000805460ff1916600117905580156107f7576000805461ff0019166101001790555b610800846112d9565b6000805462010000600160b01b031916620100006001600160a01b0386160217905561082f6001836002611790565b508015610876576000805461ff0019169055604051600181527f7f26b83ff96e1f2b6a682f133852f6798a09c465da95921460cefb38474024989060200160405180910390a15b50505050565b606061088782611349565b610894608084901b611349565b60405161060f60f31b6020820152602281019290925260428201526062016040516020818303038152906040529050919050565b7f000000000000000000000000000000000000000000000000000000000000000060405163b760faf960e01b81523060048201526001600160a01b03919091169063b760faf99034906024016000604051808303818588803b15801561092d57600080fd5b505af115801561062b573d6000803e3d6000fd5b6109496114fb565b7f000000000000000000000000000000000000000000000000000000000000000060405163040b850f60e31b81526001600160a01b03848116600483015260248201849052919091169063205c287890604401600060405180830381600087803b1580156109b657600080fd5b505af11580156109ca573d6000803e3d6000fd5b505050505050565b6001600160a01b037f0000000000000000000000000000000000000000000000000000000000000000163003610a1a5760405162461bcd60e51b815260040161057b90611f9c565b7f00000000000000000000000000000000000000000000000000000000000000006001600160a01b0316610a6360008051602061222c833981519152546001600160a01b031690565b6001600160a01b031614610a895760405162461bcd60e51b815260040161057b90611fe8565b610a9282610e88565b610a9e82826001610e90565b5050565b6000306001600160a01b037f00000000000000000000000000000000000000000000000000000000000000001614610b425760405162461bcd60e51b815260206004820152603860248201527f555550535570677261646561626c653a206d757374206e6f742062652063616c60448201527f6c6564207468726f7567682064656c656761746563616c6c0000000000000000606482015260840161057b565b5060008051602061222c83398151915290565b366000610b66607c60248587612034565b915091505b9250929050565b60018160028110610b8257600080fd5b0154905081565b610b91610d89565b610876848484848080601f016020809104026020016040519081016040528093929190818152602001838380828437600092019190915250610e1892505050565b600080610be26020828587612034565b610beb9161205e565b9150610bfb604060208587612034565b610c049161205e565b60001c90509250929050565b6040516370a0823160e01b81523060048201526000906001600160a01b037f000000000000000000000000000000000000000000000000000000000000000016906370a08231906024015b602060405180830381865afa158015610c78573d6000803e3d6000fd5b505050506040513d601f19601f82011682018060405250810190610c9c919061207c565b905090565b604051631aab3f0d60e11b8152306004820152600060248201819052906001600160a01b037f000000000000000000000000000000000000000000000000000000000000000016906335567e1a90604401610c5b565b60008151835114610d0a5750600061052c565b60005b8351811015610d7f57828181518110610d2857610d28611f11565b602001015160f81c60f81b6001600160f81b031916848281518110610d4f57610d4f611f11565b01602001516001600160f81b03191614610d6d57600091505061052c565b80610d7781611f83565b915050610d0d565b5060019392505050565b336001600160a01b037f0000000000000000000000000000000000000000000000000000000000000000161480610dca57506003546001600160a01b031633145b610e165760405162461bcd60e51b815260206004820181905260248201527f6163636f756e743a206e6f74204f776e6572206f7220456e747279506f696e74604482015260640161057b565b565b600080846001600160a01b03168484604051610e349190612095565b60006040518083038185875af1925050503d8060008114610e71576040519150601f19603f3d011682016040523d82523d6000602084013e610e76565b606091505b50915091508161062b57805160208201fd5b61070e6114fb565b7f4910fdfa16fed3260ed0e7147f7cc6da11a60208b5b9406d12a635614ffd91435460ff1615610ec857610ec38361154c565b505050565b826001600160a01b03166352d1902d6040518163ffffffff1660e01b8152600401602060405180830381865afa925050508015610f22575060408051601f3d908101601f19168201909252610f1f9181019061207c565b60015b610f855760405162461bcd60e51b815260206004820152602e60248201527f45524331393637557067726164653a206e657720696d706c656d656e7461746960448201526d6f6e206973206e6f74205555505360901b606482015260840161057b565b60008051602061222c8339815191528114610ff45760405162461bcd60e51b815260206004820152602960248201527f45524331393637557067726164653a20756e737570706f727465642070726f786044820152681a58589b195555525160ba1b606482015260840161057b565b50610ec38383836115e8565b336001600160a01b037f00000000000000000000000000000000000000000000000000000000000000001614610e165760405162461bcd60e51b815260206004820152601c60248201527f6163636f756e743a206e6f742066726f6d20456e747279506f696e7400000000604482015260640161057b565b600080808061108b610140870187611f27565b81019061109891906120b1565b925092509250600080306001600160a01b031663bbcf334b866040518263ffffffff1660e01b81526004016110cd9190611bc7565b6040805180830381865afa1580156110e9573d6000803e3d6000fd5b505050506040513d601f19601f8201168201806040525081019061110d9190612138565b9150915060006002856040516111239190612095565b602060405180830381855afa158015611140573d6000803e3d6000fd5b5050506040513d601f19601f82011682018060405250810190611163919061207c565b90506000848260405160200161117a92919061215c565b6040516020818303038152906040529050600060028260405161119d9190612095565b602060405180830381855afa1580156111ba573d6000803e3d6000fd5b5050506040513d601f19601f820116820180604052508101906111dd919061207c565b600080546040805180820182528981526020810189905290516304e960d760e01b81529394509192620100009091046001600160a01b0316916304e960d79161122d91869160019060040161217e565b602060405180830381865afa15801561124a573d6000803e3d6000fd5b505050506040513d601f19601f8201168201806040525081019061126e91906121df565b90508061127a57600080fd5b5060009b9a5050505050505050505050565b801561070e57604051600090339060001990849084818181858888f193505050503d806000811461062b576040519150601f19603f3d011682016040523d82523d6000602084013e61062b565b600380546001600160a01b0319166001600160a01b0383811691821790925560405190917f000000000000000000000000000000000000000000000000000000000000000016907f47e55c76e7a6f1fd8996a1da8008c1ea29699cca35e7bcd057f2dec313b6e5de90600090a350565b7aff00000000000000ff00000000000000ff00000000000000ff00006bffffffff0000000000000000604083901c90811663ffffffff60c01b84161760201c63ffffffff60601b919091166001600160e01b031984161717601081901c9182167eff00000000000000ff00000000000000ff00000000000000ff000000000000821617600890811c7bff00000000000000ff00000000000000ff00000000000000ff000000939093167fff00000000000000ff00000000000000ff00000000000000ff000000000000009290921691909117919091179081901c7e0f000f000f000f000f000f000f000f000f000f000f000f000f000f000f000f167f0f000f000f000f000f000f000f000f000f000f000f000f000f000f000f000f00600492831c161790611497827f0606060606060606060606060606060606060606060606060606060606060606612201565b901c7f0f0f0f0f0f0f0f0f0f0f0f0f0f0f0f0f0f0f0f0f0f0f0f0f0f0f0f0f0f0f0f0f1660076114c79190612214565b6114f1827f3030303030303030303030303030303030303030303030303030303030303030612201565b61052c9190612201565b6003546001600160a01b031633148061151357503330145b610e165760405162461bcd60e51b815260206004820152600a60248201526937b7363c9037bbb732b960b11b604482015260640161057b565b6001600160a01b0381163b6115b95760405162461bcd60e51b815260206004820152602d60248201527f455243313936373a206e657720696d706c656d656e746174696f6e206973206e60448201526c1bdd08184818dbdb9d1c9858dd609a1b606482015260840161057b565b60008051602061222c83398151915280546001600160a01b0319166001600160a01b0392909216919091179055565b6115f18361160d565b6000825111806115fe5750805b15610ec357610876838361164d565b6116168161154c565b6040516001600160a01b038216907fbc7cd75a20ee27fd9adebab32041f755214dbc6bffa90cc0225b39da2e5c2d3b90600090a250565b6060610730838360405180606001604052806027815260200161224c602791396060600080856001600160a01b03168560405161168a9190612095565b600060405180830381855af49150503d80600081146116c5576040519150601f19603f3d011682016040523d82523d6000602084013e6116ca565b606091505b50915091506116db868383876116e5565b9695505050505050565b6060831561175457825160000361174d576001600160a01b0385163b61174d5760405162461bcd60e51b815260206004820152601d60248201527f416464726573733a2063616c6c20746f206e6f6e2d636f6e7472616374000000604482015260640161057b565b508161175e565b61175e8383611766565b949350505050565b8151156117765781518083602001fd5b8060405162461bcd60e51b815260040161057b9190611bc7565b82600281019282156117be579160200282015b828111156117be5782518255916020019190600101906117a3565b506117ca9291506117ce565b5090565b5b808211156117ca57600081556001016117cf565b6001600160a01b038116811461070e57600080fd5b60008083601f84011261180a57600080fd5b5081356001600160401b0381111561182157600080fd5b602083019150836020828501011115610b6b57600080fd5b60008060008060008060008060c0898b03121561185557600080fd5b8835611860816117e3565b97506020890135611870816117e3565b96506040890135611880816117e3565b95506060890135945060808901356001600160401b03808211156118a357600080fd5b6118af8c838d016117f8565b909650945060a08b01359150808211156118c857600080fd5b506118d58b828c016117f8565b999c989b5096995094979396929594505050565b6000602082840312156118fb57600080fd5b81356001600160e01b03198116811461073057600080fd5b60008060008060006080868803121561192b57600080fd5b8535611936816117e3565b94506020860135611946816117e3565b93506040860135925060608601356001600160401b0381111561196857600080fd5b611974888289016117f8565b969995985093965092949392505050565b60008083601f84011261199757600080fd5b5081356001600160401b038111156119ae57600080fd5b6020830191508360208260051b8501011115610b6b57600080fd5b600080600080604085870312156119df57600080fd5b84356001600160401b03808211156119f657600080fd5b611a0288838901611985565b90965094506020870135915080821115611a1b57600080fd5b50611a2887828801611985565b95989497509550505050565b600060208284031215611a4657600080fd5b8135610730816117e3565b600080600060608486031215611a6657600080fd5b83356001600160401b03811115611a7c57600080fd5b84016101608187031215611a8f57600080fd5b95602085013595506040909401359392505050565b634e487b7160e01b600052604160045260246000fd5b600080600060808486031215611acf57600080fd5b8335611ada816117e3565b9250602084810135611aeb816117e3565b9250605f85018613611afc57600080fd5b604051604081018181106001600160401b0382111715611b1e57611b1e611aa4565b604052806080870188811115611b3357600080fd5b604088015b81811015611b4f5780358352918401918401611b38565b50505080925050509250925092565b600060208284031215611b7057600080fd5b5035919050565b60005b83811015611b92578181015183820152602001611b7a565b50506000910152565b60008151808452611bb3816020860160208601611b77565b601f01601f19169290920160200192915050565b6020815260006107306020830184611b9b565b60008060408385031215611bed57600080fd5b8235611bf8816117e3565b946020939093013593505050565b600082601f830112611c1757600080fd5b81356001600160401b0380821115611c3157611c31611aa4565b604051601f8301601f19908116603f01168101908282118183101715611c5957611c59611aa4565b81604052838152866020858801011115611c7257600080fd5b836020870160208301376000602085830101528094505050505092915050565b60008060408385031215611ca557600080fd5b8235611cb0816117e3565b915060208301356001600160401b03811115611ccb57600080fd5b611cd785828601611c06565b9150509250929050565b60008060208385031215611cf457600080fd5b82356001600160401b03811115611d0a57600080fd5b611d16858286016117f8565b90969095509350505050565b60208152816020820152818360408301376000818301604090810191909152601f909201601f19160101919050565b60008060008060608587031215611d6757600080fd5b8435611d72816117e3565b93506020850135925060408501356001600160401b03811115611d9457600080fd5b611a28878288016117f8565b60008060008060008060008060a0898b031215611dbc57600080fd5b8835611dc7816117e3565b97506020890135611dd7816117e3565b965060408901356001600160401b0380821115611df357600080fd5b611dff8c838d01611985565b909850965060608b0135915080821115611e1857600080fd5b611e248c838d01611985565b909650945060808b01359150808211156118c857600080fd5b60008060408385031215611e5057600080fd5b82356001600160401b0380821115611e6757600080fd5b611e7386838701611c06565b93506020850135915080821115611e8957600080fd5b50611cd785828601611c06565b60008060008060008060a08789031215611eaf57600080fd5b8635611eba816117e3565b95506020870135611eca816117e3565b9450604087013593506060870135925060808701356001600160401b03811115611ef357600080fd5b611eff89828a016117f8565b979a9699509497509295939492505050565b634e487b7160e01b600052603260045260246000fd5b6000808335601e19843603018112611f3e57600080fd5b8301803591506001600160401b03821115611f5857600080fd5b602001915036819003821315610b6b57600080fd5b634e487b7160e01b600052601160045260246000fd5b600060018201611f9557611f95611f6d565b5060010190565b6020808252602c908201527f46756e6374696f6e206d7573742062652063616c6c6564207468726f7567682060408201526b19195b1959d85d1958d85b1b60a21b606082015260800190565b6020808252602c908201527f46756e6374696f6e206d7573742062652063616c6c6564207468726f7567682060408201526b6163746976652070726f787960a01b606082015260800190565b6000808585111561204457600080fd5b8386111561205157600080fd5b5050820193919092039150565b8035602083101561052c57600019602084900360031b1b1692915050565b60006020828403121561208e57600080fd5b5051919050565b600082516120a7818460208701611b77565b9190910192915050565b6000806000606084860312156120c657600080fd5b83356001600160401b03808211156120dd57600080fd5b6120e987838801611c06565b945060208601359150808211156120ff57600080fd5b61210b87838801611c06565b9350604086013591508082111561212157600080fd5b5061212e86828701611c06565b9150509250925092565b6000806040838503121561214b57600080fd5b505080516020909101519092909150565b6000835161216e818460208801611b77565b9190910191825250602001919050565b83815260a0810160208083018560005b60028110156121ab5781518352918301919083019060010161218e565b505050606083018460005b60028110156121d3578154835291830191600191820191016121b6565b50505050949350505050565b6000602082840312156121f157600080fd5b8151801515811461073057600080fd5b8082018082111561052c5761052c611f6d565b808202811582820484141761052c5761052c611f6d56fe360894a13ba1a3210667c828492db98dca3e2076cc3735a920a3ca505d382bbc416464726573733a206c6f772d6c6576656c2064656c65676174652063616c6c206661696c6564a2646970667358221220144a2b844d30396525edd276c4b8ed459b74efb8438e37f2abd72a6e5d55984064736f6c63430008130033",
    "linkReferences": {}
  },
  "methodIdentifiers": {
    "_getRSValues(bytes)": "bbcf334b",
    "addDeposit()": "4a58db19",
    "compareBytes(bytes,bytes)": "d259183d",
    "ec()": "f83b5dce",
    "entryPoint()": "b0d691fe",
    "execute(address,uint256,bytes)": "b61d27f6",
    "executeBatch(address[],bytes[])": "18dfb3c7",
    "getDeposit()": "c399ec88",
    "getNonce()": "d087d288",
    "getRequestIdFromClientDataJSON(bytes)": "82c1fb6a",
    "initialize(address,address,uint256[2])": "43a480b5",
    "onERC1155BatchReceived(address,address,uint256[],uint256[],bytes)": "bc197c81",
    "onERC1155Received(address,address,uint256,uint256,bytes)": "f23a6e61",
    "onERC721Received(address,address,uint256,bytes)": "150b7a02",
    "owner()": "8da5cb5b",
    "proxiableUUID()": "52d1902d",
    "q(uint256)": "9a486cc7",
    "supportsInterface(bytes4)": "01ffc9a7",
    "toHex(bytes32)": "49e894d8",
    "tokensReceived(address,address,address,uint256,bytes,bytes)": "0023de29",
    "upgradeTo(address)": "3659cfe6",
    "upgradeToAndCall(address,bytes)": "4f1ef286",
    "validateUserOp((address,uint256,bytes,bytes,uint256,uint256,uint256,uint256,uint256,bytes,bytes),bytes32,uint256)": "3a871cdd",
    "withdrawDepositTo(address,uint256)": "4d44560d"
  },
  "id": 49
}