{
  "abi": [
    {
      "inputs": [
        {
          "internalType": "address",
          "name": "entryPointAddress",
          "type": "address"
        },
        {
          "internalType": "uint256[2]",
          "name": "pubKey",
          "type": "uint256[2]"
        }
      ],
      "stateMutability": "nonpayable",
      "type": "constructor"
    },
    {
      "inputs": [],
      "name": "InvalidAuthenticatorData",
      "type": "error"
    },
    {
      "inputs": [],
      "name": "enableMyself",
      "outputs": [],
      "stateMutability": "nonpayable",
      "type": "function"
    },
    {
      "inputs": [],
      "name": "entryPoint",
      "outputs": [
        {
          "internalType": "contract IEntryPoint",
          "name": "",
          "type": "address"
        }
      ],
      "stateMutability": "view",
      "type": "function"
    },
    {
      "inputs": [
        {
          "internalType": "address",
          "name": "to",
          "type": "address"
        },
        {
          "internalType": "uint256",
          "name": "value",
          "type": "uint256"
        },
        {
          "internalType": "bytes",
          "name": "data",
          "type": "bytes"
        }
      ],
      "name": "execTransaction",
      "outputs": [],
      "stateMutability": "payable",
      "type": "function"
    },
    {
      "inputs": [],
      "name": "getNonce",
      "outputs": [
        {
          "internalType": "uint256",
          "name": "",
          "type": "uint256"
        }
      ],
      "stateMutability": "view",
      "type": "function"
    },
    {
      "inputs": [],
      "name": "myAddress",
      "outputs": [
        {
          "internalType": "address",
          "name": "",
          "type": "address"
        }
      ],
      "stateMutability": "view",
      "type": "function"
    },
    {
      "inputs": [],
      "name": "publicKey",
      "outputs": [
        {
          "internalType": "uint256[2]",
          "name": "",
          "type": "uint256[2]"
        }
      ],
      "stateMutability": "view",
      "type": "function"
    },
    {
      "inputs": [
        {
          "components": [
            {
              "internalType": "address",
              "name": "sender",
              "type": "address"
            },
            {
              "internalType": "uint256",
              "name": "nonce",
              "type": "uint256"
            },
            {
              "internalType": "bytes",
              "name": "initCode",
              "type": "bytes"
            },
            {
              "internalType": "bytes",
              "name": "callData",
              "type": "bytes"
            },
            {
              "internalType": "uint256",
              "name": "callGasLimit",
              "type": "uint256"
            },
            {
              "internalType": "uint256",
              "name": "verificationGasLimit",
              "type": "uint256"
            },
            {
              "internalType": "uint256",
              "name": "preVerificationGas",
              "type": "uint256"
            },
            {
              "internalType": "uint256",
              "name": "maxFeePerGas",
              "type": "uint256"
            },
            {
              "internalType": "uint256",
              "name": "maxPriorityFeePerGas",
              "type": "uint256"
            },
            {
              "internalType": "bytes",
              "name": "paymasterAndData",
              "type": "bytes"
            },
            {
              "internalType": "bytes",
              "name": "signature",
              "type": "bytes"
            }
          ],
          "internalType": "struct UserOperation",
          "name": "userOp",
          "type": "tuple"
        },
        {
          "internalType": "bytes32",
          "name": "userOpHash",
          "type": "bytes32"
        },
        {
          "internalType": "uint256",
          "name": "missingAccountFunds",
          "type": "uint256"
        }
      ],
      "name": "validateUserOp",
      "outputs": [
        {
          "internalType": "uint256",
          "name": "validationData",
          "type": "uint256"
        }
      ],
      "stateMutability": "nonpayable",
      "type": "function"
    }
  ],
  "bytecode": {
    "object": "0x60c06040523480156200001157600080fd5b5060405162001ae338038062001ae38339810160408190526200003491620000cd565b306080526001600160a01b03821660a0526200005460008260026200005d565b50505062000174565b82600281019282156200008e579160200282015b828111156200008e57825182559160200191906001019062000071565b506200009c929150620000a0565b5090565b5b808211156200009c5760008155600101620000a1565b634e487b7160e01b600052604160045260246000fd5b60008060608385031215620000e157600080fd5b82516001600160a01b0381168114620000f957600080fd5b91506020603f840185136200010d57600080fd5b604080519081016001600160401b0381118282101715620001325762000132620000b7565b6040528060608601878111156200014857600080fd5b8387015b818110156200016557805183529184019184016200014c565b50505080925050509250929050565b60805160a051611935620001ae6000396000818161014f015281816101b801526103cf015260008181608701526102b001526119356000f3fe6080604052600436106100705760003560e01c8063a798b2b11161004e578063a798b2b114610116578063ab4ed83e1461012d578063b0d691fe14610140578063d087d2881461017357600080fd5b806326b85ee1146100755780633a871cdd146100c657806363ffab31146100f4575b600080fd5b34801561008157600080fd5b506100a97f000000000000000000000000000000000000000000000000000000000000000081565b6040516001600160a01b0390911681526020015b60405180910390f35b3480156100d257600080fd5b506100e66100e13660046113f7565b610188565b6040519081526020016100bd565b34801561010057600080fd5b5061010961025f565b6040516100bd919061144b565b34801561012257600080fd5b5061012b610299565b005b61012b61013b366004611498565b610314565b34801561014c57600080fd5b507f00000000000000000000000000000000000000000000000000000000000000006100a9565b34801561017f57600080fd5b506100e66103cb565b600080610198602086018661151f565b905080831561024b5760405163468721a760e01b81526001600160a01b037f0000000000000000000000000000000000000000000000000000000000000000811660048301526024820186905260806044830152600060848301819052606483015282169063468721a79060a4016020604051808303816000875af1158015610225573d6000803e3d6000fd5b505050506040513d601f19601f82011682018060405250810190610249919061153a565b505b6102558686610464565b9695505050505050565b6102676113bb565b60408051808201918290529060009060029082845b81548152602001906001019080831161027c575050505050905090565b60405163610b592560e01b81526001600160a01b037f0000000000000000000000000000000000000000000000000000000000000000166004820152309063610b592590602401600060405180830381600087803b1580156102fa57600080fd5b505af115801561030e573d6000803e3d6000fd5b50505050565b60405163468721a760e01b815233908190819063468721a79061034490899089908990899060009060040161155c565b6020604051808303816000875af1158015610363573d6000803e3d6000fd5b505050506040513d601f19601f82011682018060405250810190610387919061153a565b6103c35760405162461bcd60e51b81526020600482015260096024820152681d1e0819985a5b195960ba1b604482015260640160405180910390fd5b505050505050565b60007f0000000000000000000000000000000000000000000000000000000000000000604051631aab3f0d60e11b8152306004820152600060248201526001600160a01b0391909116906335567e1a90604401602060405180830381865afa15801561043b573d6000803e3d6000fd5b505050506040513d601f19601f8201168201806040525081019061045f91906115b1565b905090565b600080808080808061047a6101408a018a6115ca565b8101906104879190611720565b95509550955095509550955060006104a48787878c8888886104cd565b9050806104bb5760019750505050505050506104c7565b60009750505050505050505b92915050565b6000806104de8989898989896104fb565b905060006104ed82868661069a565b9a9950505050505050505050565b6000856001600160f81b031916868860208151811061051c5761051c6117d2565b0160200151166001600160f81b0319161461054a57604051637e49a3c960e11b815260040160405180910390fd5b60006105768560405160200161056291815260200190565b604051602081830303815290604052610795565b90506000815167ffffffffffffffff81111561059457610594611618565b6040519080825280601f01601f1916602001820160405280156105be576020820181803683370190505b509050505060006002866040516105d59190611818565b602060405180830381855afa1580156105f2573d6000803e3d6000fd5b5050506040513d601f19601f8201168201806040525081019061061591906115b1565b90506000888260405160200161062c929190611824565b604051602081830303815290604052905060028160405161064d9190611818565b602060405180830381855afa15801561066a573d6000803e3d6000fd5b5050506040513d601f19601f8201168201806040525081019061068d91906115b1565b9998505050505050505050565b815160009015806106ba575082516000805160206118a083398151915211155b806106c757506020830151155b806106e4575060208301516000805160206118a083398151915211155b156106f15750600061078e565b8151602083015161070291906108e8565b61070e5750600061078e565b600061072084600160200201516109e1565b905060006000805160206118a0833981519152828709905060006000805160206118a0833981519152838760006020020151098551602087015191925060009161076c91908585610a5a565b87519091506000805160206118a0833981519152818103830815955050505050505b9392505050565b606081516000036107b457505060408051602081019091526000815290565b60006040518060600160405280604081526020016118c060409139905060006003845160026107e39190611853565b6107ed9190611866565b6107f8906004611888565b67ffffffffffffffff81111561081057610810611618565b6040519080825280601f01601f19166020018201604052801561083a576020820181803683370190505b509050600182016020820185865187015b808210156108a6576003820191508151603f8160121c168501518453600184019350603f81600c1c168501518453600184019350603f8160061c168501518453600184019350603f811685015184535060018301925061084b565b50506003865106600181146108c257600281146108d5576108dd565b603d6001830353603d60028303536108dd565b603d60018303535b509195945050505050565b60008215806109045750600160601b63ffffffff60c01b031983145b8061090d575081155b806109255750600160601b63ffffffff60c01b031982145b15610932575060006104c7565b6000600160601b63ffffffff60c01b031983840990506000600160601b63ffffffff60c01b0319807fffffffff00000001000000000000000000000000fffffffffffffffffffffffc8709600160601b63ffffffff60c01b031987600160601b63ffffffff60c01b0319898a0909089050600160601b63ffffffff60c01b03197f5ac635d8aa3a93e7b3ebbd55769886bc651d06b0cc53b0f63bce3c3e27d2604b820891909114949350505050565b60006109eb6113d9565b60208152602080820152602060408201528260608201527fffffffff00000000ffffffffffffffffbce6faada7179e84f3b9cac2fc63254f60808201526000805160206118a083398151915260a082015260208160c08360006005600019f1610a5357600080fd5b5192915050565b600080808060ff610a696113d9565b60008089158015610a78575088155b15610a8d576000975050505050505050611101565b610ad97f6b17d1f2e12c4247f8bce6e563a440f277037d812deb33a0f4a13945d898c2967f4fe342e2fe1a7f9b8ee7eb4a7c0f9e162bce33576b315ececbb6406837bf51f58e8e611109565b809250819350505060018a851c1660018a861c1660011b015b80610b145760018503945060018b861c1660018b871c1660011b019050610af2565b5060018a851c1660018a861c1660011b01965060018703610b76577f6b17d1f2e12c4247f8bce6e563a440f277037d812deb33a0f4a13945d898c29697507f4fe342e2fe1a7f9b8ee7eb4a7c0f9e162bce33576b315ececbb6406837bf51f594505b60028703610b85578b97508a94505b60038703610b94578197508094505b60018403935060019650600195505b83600019111561108b57600160601b63ffffffff60c01b031985600209600160601b63ffffffff60c01b0319818209600160601b63ffffffff60c01b0319818b09600160601b63ffffffff60c01b03198284099250600160601b63ffffffff60c01b031980600160601b63ffffffff60c01b03198c8e08600160601b63ffffffff60c01b03198d600160601b63ffffffff60c01b0319038f0809600309600160601b63ffffffff60c01b03198a85099950600160601b63ffffffff60c01b03198b84099a50600160601b63ffffffff60c01b031980836002600160601b0363ffffffff60c01b031909600160601b63ffffffff60c01b0319838409089b50600160601b63ffffffff60c01b03198083600160601b63ffffffff60c01b0319038e0882099250600160601b63ffffffff60c01b031983600160601b63ffffffff60c01b03198b870908985060018e891c1660018e8a1c1660011b01905080610d205788600160601b63ffffffff60c01b031903985050505050611080565b60018103610d6f577f6b17d1f2e12c4247f8bce6e563a440f277037d812deb33a0f4a13945d898c29693507f4fe342e2fe1a7f9b8ee7eb4a7c0f9e162bce33576b315ececbb6406837bf51f592505b60028103610d7e578f93508e92505b60038103610d8d578593508492505b8a610da657509199506001985088975095506110809050565b600160601b63ffffffff60c01b031989600160601b63ffffffff60c01b03198c860908600160601b63ffffffff60c01b03198d600160601b63ffffffff60c01b031903600160601b63ffffffff60c01b03198e880908935080610f725783610f7257600160601b63ffffffff60c01b03198a6002600160601b0363ffffffff60c01b0319099450600160601b63ffffffff60c01b03198586099350600160601b63ffffffff60c01b0319848e099250600160601b63ffffffff60c01b0319848609600160601b63ffffffff60c01b03198d8f089150600160601b63ffffffff60c01b03198d600160601b63ffffffff60c01b0319038f089050600160601b63ffffffff60c01b03198183099150600160601b63ffffffff60c01b0319826003099250600160601b63ffffffff60c01b03198c82099b5050600160601b63ffffffff60c01b03198c85099b50600160601b63ffffffff60c01b031980846002600160601b0363ffffffff60c01b031909600160601b63ffffffff60c01b0319848509089c50600160601b63ffffffff60c01b0319808e600160601b63ffffffff60c01b031903850883099350600160601b63ffffffff60c01b0319808b8709850899505050505050611080565b600160601b63ffffffff60c01b03198485099150600160601b63ffffffff60c01b0319848309600160601b63ffffffff60c01b0319838e099c50600160601b63ffffffff60c01b0319818d099b50600160601b63ffffffff60c01b0319838f09600160601b63ffffffff60c01b031980826002600160601b0363ffffffff60c01b031909600160601b63ffffffff60c01b031984600160601b63ffffffff60c01b031903600160601b63ffffffff60c01b031987880908089350600160601b63ffffffff60c01b031980838e09600160601b63ffffffff60c01b031985600160601b63ffffffff60c01b031988600160601b63ffffffff60c01b031903860809089b50505050809b50505050505b600184039350610ba3565b86606084015260208352602080840152602060408401526002600160601b0363ffffffff60c01b03196080840152600160601b63ffffffff60c01b031960a084015260208360c08560006005600019f16110e457600080fd5b600160601b63ffffffff60c01b0319835189099750505050505050505b949350505050565b60008080808661112057858593509350505061115e565b8461113257858593509350505061115e565b61114188886001808a8a611167565b929a5090985092509050611157888884846112eb565b9350935050505b94509492505050565b60008060008088600003611186575084925083915060019050806112de565b600160601b63ffffffff60c01b0319988903988981898809089450600160601b63ffffffff60c01b03198a600160601b63ffffffff60c01b031903600160601b63ffffffff60c01b03198a8909089550600160601b63ffffffff60c01b03198687099350600160601b63ffffffff60c01b03198685099250600160601b63ffffffff60c01b03198489099150600160601b63ffffffff60c01b03198388099050600160601b63ffffffff60c01b0319848b099750600160601b63ffffffff60c01b031980896002600160601b0363ffffffff60c01b031909600160601b63ffffffff60c01b031985600160601b63ffffffff60c01b031903600160601b63ffffffff60c01b0319898a0908089350600160601b63ffffffff60c01b031980848b09600160601b63ffffffff60c01b031987600160601b63ffffffff60c01b031988600160601b63ffffffff60c01b0319038d08090892505b9650965096509692505050565b60008060006112f984611358565b9050600160601b63ffffffff60c01b031981870991506000600160601b63ffffffff60c01b03198287099050600160601b63ffffffff60c01b03198182099150600160601b63ffffffff60c01b03198289099350505094509492505050565b60006113626113d9565b60208152602080820152602060408201528260608201526002600160601b0363ffffffff60c01b03196080820152600160601b63ffffffff60c01b031960a082015260208160c08360006005600019f1610a5357600080fd5b60405180604001604052806002906020820280368337509192915050565b6040518060c001604052806006906020820280368337509192915050565b60008060006060848603121561140c57600080fd5b833567ffffffffffffffff81111561142357600080fd5b8401610160818703121561143657600080fd5b95602085013595506040909401359392505050565b60408101818360005b6002811015611473578151835260209283019290910190600101611454565b50505092915050565b80356001600160a01b038116811461149357600080fd5b919050565b600080600080606085870312156114ae57600080fd5b6114b78561147c565b935060208501359250604085013567ffffffffffffffff808211156114db57600080fd5b818701915087601f8301126114ef57600080fd5b8135818111156114fe57600080fd5b88602082850101111561151057600080fd5b95989497505060200194505050565b60006020828403121561153157600080fd5b61078e8261147c565b60006020828403121561154c57600080fd5b8151801515811461078e57600080fd5b6001600160a01b0386168152602081018590526080604082018190528101839052828460a0830137600060a08483010152600060a0601f19601f860116830101905060ff831660608301529695505050505050565b6000602082840312156115c357600080fd5b5051919050565b6000808335601e198436030181126115e157600080fd5b83018035915067ffffffffffffffff8211156115fc57600080fd5b60200191503681900382131561161157600080fd5b9250929050565b634e487b7160e01b600052604160045260246000fd5b600082601f83011261163f57600080fd5b813567ffffffffffffffff8082111561165a5761165a611618565b604051601f8301601f19908116603f0116810190828211818310171561168257611682611618565b8160405283815286602085880101111561169b57600080fd5b836020870160208301376000602085830101528094505050505092915050565b600082601f8301126116cc57600080fd5b6040516040810181811067ffffffffffffffff821117156116ef576116ef611618565b806040525080604084018581111561170657600080fd5b845b818110156108dd578035835260209283019201611708565b600080600080600080610100878903121561173a57600080fd5b863567ffffffffffffffff8082111561175257600080fd5b61175e8a838b0161162e565b9750602089013591506001600160f81b03198216821461177d57600080fd5b9095506040880135908082111561179357600080fd5b506117a089828a0161162e565b945050606087013592506117b788608089016116bb565b91506117c68860c089016116bb565b90509295509295509295565b634e487b7160e01b600052603260045260246000fd5b6000815160005b8181101561180957602081850181015186830152016117ef565b50600093019283525090919050565b600061078e82846117e8565b600061183082856117e8565b9283525050602001919050565b634e487b7160e01b600052601160045260246000fd5b808201808211156104c7576104c761183d565b60008261188357634e487b7160e01b600052601260045260246000fd5b500490565b80820281158282048414176104c7576104c761183d56feffffffff00000000ffffffffffffffffbce6faada7179e84f3b9cac2fc6325514142434445464748494a4b4c4d4e4f505152535455565758595a6162636465666768696a6b6c6d6e6f707172737475767778797a303132333435363738392b2fa2646970667358221220a4639fbc5a59ebcf280467cc8f26902d7cfdf9bc4ef56de3a2cf5030e7da931c64736f6c63430008150033",
    "linkReferences": {}
  },
  "methodIdentifiers": {
    "enableMyself()": "a798b2b1",
    "entryPoint()": "b0d691fe",
    "execTransaction(address,uint256,bytes)": "ab4ed83e",
    "getNonce()": "d087d288",
    "myAddress()": "26b85ee1",
    "publicKey()": "63ffab31",
    "validateUserOp((address,uint256,bytes,bytes,uint256,uint256,uint256,uint256,uint256,bytes,bytes),bytes32,uint256)": "3a871cdd"
  },
  "id": 43
}