{
  "_format": "hh-sol-artifact-1",
  "contractName": "SafeProxyFactory",
  "sourceName": "lib/safe-contracts/contracts/proxies/SafeProxyFactory.sol",
  "abi": [
    {
      "anonymous": false,
      "inputs": [
        {
          "indexed": true,
          "internalType": "contract SafeProxy",
          "name": "proxy",
          "type": "address"
        },
        {
          "indexed": false,
          "internalType": "address",
          "name": "singleton",
          "type": "address"
        }
      ],
      "name": "ProxyCreation",
      "type": "event"
    },
    {
      "inputs": [
        {
          "internalType": "address",
          "name": "_singleton",
          "type": "address"
        },
        {
          "internalType": "bytes",
          "name": "initializer",
          "type": "bytes"
        },
        {
          "internalType": "uint256",
          "name": "saltNonce",
          "type": "uint256"
        }
      ],
      "name": "createChainSpecificProxyWithNonce",
      "outputs": [
        {
          "internalType": "contract SafeProxy",
          "name": "proxy",
          "type": "address"
        }
      ],
      "stateMutability": "nonpayable",
      "type": "function"
    },
    {
      "inputs": [
        {
          "internalType": "address",
          "name": "_singleton",
          "type": "address"
        },
        {
          "internalType": "bytes",
          "name": "initializer",
          "type": "bytes"
        },
        {
          "internalType": "uint256",
          "name": "saltNonce",
          "type": "uint256"
        },
        {
          "internalType": "contract IProxyCreationCallback",
          "name": "callback",
          "type": "address"
        }
      ],
      "name": "createProxyWithCallback",
      "outputs": [
        {
          "internalType": "contract SafeProxy",
          "name": "proxy",
          "type": "address"
        }
      ],
      "stateMutability": "nonpayable",
      "type": "function"
    },
    {
      "inputs": [
        {
          "internalType": "address",
          "name": "_singleton",
          "type": "address"
        },
        {
          "internalType": "bytes",
          "name": "initializer",
          "type": "bytes"
        },
        {
          "internalType": "uint256",
          "name": "saltNonce",
          "type": "uint256"
        }
      ],
      "name": "createProxyWithNonce",
      "outputs": [
        {
          "internalType": "contract SafeProxy",
          "name": "proxy",
          "type": "address"
        }
      ],
      "stateMutability": "nonpayable",
      "type": "function"
    },
    {
      "inputs": [],
      "name": "getChainId",
      "outputs": [
        {
          "internalType": "uint256",
          "name": "",
          "type": "uint256"
        }
      ],
      "stateMutability": "view",
      "type": "function"
    },
    {
      "inputs": [],
      "name": "proxyCreationCode",
      "outputs": [
        {
          "internalType": "bytes",
          "name": "",
          "type": "bytes"
        }
      ],
      "stateMutability": "pure",
      "type": "function"
    }
  ],
  "bytecode": "0x608060405234801561001057600080fd5b506107ce806100206000396000f3fe608060405234801561001057600080fd5b50600436106100575760003560e01c80631688f0b91461005c5780633408e4701461008c57806353e5d9351461009a578063d18af54d146100af578063ec9e80bb146100c2575b600080fd5b61006f61006a36600461048b565b6100d5565b6040516001600160a01b0390911681526020015b60405180910390f35b604051468152602001610083565b6100a261016a565b6040516100839190610540565b61006f6100bd36600461055a565b610194565b61006f6100d036600461048b565b61026a565b6000808380519060200120836040516020016100fb929190918252602082015260400190565b60405160208183030381529060405280519060200120905061011e85858361029c565b6040516001600160a01b038781168252919350908316907f4f51faf6c4561ff95f067657e43439f0f856d97c04d9ec9070a6199ad418e2359060200160405180910390a2509392505050565b60606040518060200161017c906103c3565b601f1982820381018352601f90910116604052919050565b60008083836040516020016101c592919091825260601b6bffffffffffffffffffffffff1916602082015260340190565b6040516020818303038152906040528051906020012060001c90506101eb8686836100d5565b91506001600160a01b03831615610261576040516303ca56a360e31b81526001600160a01b03841690631e52b5189061022e9085908a908a908a906004016105c6565b600060405180830381600087803b15801561024857600080fd5b505af115801561025c573d6000803e3d6000fd5b505050505b50949350505050565b60008083805190602001208361027d4690565b60408051602081019490945283019190915260608201526080016100fb565b6000833b6102f15760405162461bcd60e51b815260206004820152601f60248201527f53696e676c65746f6e20636f6e7472616374206e6f74206465706c6f7965640060448201526064015b60405180910390fd5b600060405180602001610303906103c3565b601f1982820381018352601f90910116604081905261033091906001600160a01b03881690602001610603565b6040516020818303038152906040529050828151826020016000f591506001600160a01b0382166103995760405162461bcd60e51b815260206004820152601360248201527210dc99585d194c8818d85b1b0819985a5b1959606a1b60448201526064016102e8565b8351156103bb5760008060008651602088016000875af114156103bb57600080fd5b509392505050565b6101738061062683390190565b6001600160a01b03811681146103e557600080fd5b50565b634e487b7160e01b600052604160045260246000fd5b600082601f83011261040f57600080fd5b813567ffffffffffffffff8082111561042a5761042a6103e8565b604051601f8301601f19908116603f01168101908282118183101715610452576104526103e8565b8160405283815286602085880101111561046b57600080fd5b836020870160208301376000602085830101528094505050505092915050565b6000806000606084860312156104a057600080fd5b83356104ab816103d0565b9250602084013567ffffffffffffffff8111156104c757600080fd5b6104d3868287016103fe565b925050604084013590509250925092565b60005b838110156104ff5781810151838201526020016104e7565b8381111561050e576000848401525b50505050565b6000815180845261052c8160208601602086016104e4565b601f01601f19169290920160200192915050565b6020815260006105536020830184610514565b9392505050565b6000806000806080858703121561057057600080fd5b843561057b816103d0565b9350602085013567ffffffffffffffff81111561059757600080fd5b6105a3878288016103fe565b9350506040850135915060608501356105bb816103d0565b939692955090935050565b6001600160a01b038581168252841660208201526080604082018190526000906105f290830185610514565b905082606083015295945050505050565b600083516106158184602088016104e4565b919091019182525060200191905056fe608060405234801561001057600080fd5b5060405161017338038061017383398101604081905261002f916100b9565b6001600160a01b0381166100945760405162461bcd60e51b815260206004820152602260248201527f496e76616c69642073696e676c65746f6e20616464726573732070726f766964604482015261195960f21b606482015260840160405180910390fd5b600080546001600160a01b0319166001600160a01b03929092169190911790556100e9565b6000602082840312156100cb57600080fd5b81516001600160a01b03811681146100e257600080fd5b9392505050565b607c806100f76000396000f3fe6080604052600080546001600160a01b0316813563530ca43760e11b1415602857808252602082f35b3682833781823684845af490503d82833e806041573d82fd5b503d81f3fea26469706673582212208b1b619206fec466365a3d0e86cadc1fb4847d576c9386bb75b56f5f7474c95664736f6c634300080c0033a2646970667358221220c1ea470f0a1b30da2f38ccb694cf6dc08a04bfc58377415c54cebb8a5b2db1de64736f6c634300080c0033",
  "linkReferences": {},
  "deployedLinkReferences": {}
}