{
  "_format": "hh-sol-artifact-1",
  "contractName": "Safe",
  "sourceName": "lib/safe-contracts/contracts/Safe.sol",
  "abi": [
    {
      "inputs": [],
      "stateMutability": "nonpayable",
      "type": "constructor"
    },
    {
      "anonymous": false,
      "inputs": [
        {
          "indexed": true,
          "internalType": "address",
          "name": "owner",
          "type": "address"
        }
      ],
      "name": "AddedOwner",
      "type": "event"
    },
    {
      "anonymous": false,
      "inputs": [
        {
          "indexed": true,
          "internalType": "bytes32",
          "name": "approvedHash",
          "type": "bytes32"
        },
        {
          "indexed": true,
          "internalType": "address",
          "name": "owner",
          "type": "address"
        }
      ],
      "name": "ApproveHash",
      "type": "event"
    },
    {
      "anonymous": false,
      "inputs": [
        {
          "indexed": true,
          "internalType": "address",
          "name": "handler",
          "type": "address"
        }
      ],
      "name": "ChangedFallbackHandler",
      "type": "event"
    },
    {
      "anonymous": false,
      "inputs": [
        {
          "indexed": true,
          "internalType": "address",
          "name": "guard",
          "type": "address"
        }
      ],
      "name": "ChangedGuard",
      "type": "event"
    },
    {
      "anonymous": false,
      "inputs": [
        {
          "indexed": false,
          "internalType": "uint256",
          "name": "threshold",
          "type": "uint256"
        }
      ],
      "name": "ChangedThreshold",
      "type": "event"
    },
    {
      "anonymous": false,
      "inputs": [
        {
          "indexed": true,
          "internalType": "address",
          "name": "module",
          "type": "address"
        }
      ],
      "name": "DisabledModule",
      "type": "event"
    },
    {
      "anonymous": false,
      "inputs": [
        {
          "indexed": true,
          "internalType": "address",
          "name": "module",
          "type": "address"
        }
      ],
      "name": "EnabledModule",
      "type": "event"
    },
    {
      "anonymous": false,
      "inputs": [
        {
          "indexed": true,
          "internalType": "bytes32",
          "name": "txHash",
          "type": "bytes32"
        },
        {
          "indexed": false,
          "internalType": "uint256",
          "name": "payment",
          "type": "uint256"
        }
      ],
      "name": "ExecutionFailure",
      "type": "event"
    },
    {
      "anonymous": false,
      "inputs": [
        {
          "indexed": true,
          "internalType": "address",
          "name": "module",
          "type": "address"
        }
      ],
      "name": "ExecutionFromModuleFailure",
      "type": "event"
    },
    {
      "anonymous": false,
      "inputs": [
        {
          "indexed": true,
          "internalType": "address",
          "name": "module",
          "type": "address"
        }
      ],
      "name": "ExecutionFromModuleSuccess",
      "type": "event"
    },
    {
      "anonymous": false,
      "inputs": [
        {
          "indexed": true,
          "internalType": "bytes32",
          "name": "txHash",
          "type": "bytes32"
        },
        {
          "indexed": false,
          "internalType": "uint256",
          "name": "payment",
          "type": "uint256"
        }
      ],
      "name": "ExecutionSuccess",
      "type": "event"
    },
    {
      "anonymous": false,
      "inputs": [
        {
          "indexed": true,
          "internalType": "address",
          "name": "owner",
          "type": "address"
        }
      ],
      "name": "RemovedOwner",
      "type": "event"
    },
    {
      "anonymous": false,
      "inputs": [
        {
          "indexed": true,
          "internalType": "address",
          "name": "sender",
          "type": "address"
        },
        {
          "indexed": false,
          "internalType": "uint256",
          "name": "value",
          "type": "uint256"
        }
      ],
      "name": "SafeReceived",
      "type": "event"
    },
    {
      "anonymous": false,
      "inputs": [
        {
          "indexed": true,
          "internalType": "address",
          "name": "initiator",
          "type": "address"
        },
        {
          "indexed": false,
          "internalType": "address[]",
          "name": "owners",
          "type": "address[]"
        },
        {
          "indexed": false,
          "internalType": "uint256",
          "name": "threshold",
          "type": "uint256"
        },
        {
          "indexed": false,
          "internalType": "address",
          "name": "initializer",
          "type": "address"
        },
        {
          "indexed": false,
          "internalType": "address",
          "name": "fallbackHandler",
          "type": "address"
        }
      ],
      "name": "SafeSetup",
      "type": "event"
    },
    {
      "anonymous": false,
      "inputs": [
        {
          "indexed": true,
          "internalType": "bytes32",
          "name": "msgHash",
          "type": "bytes32"
        }
      ],
      "name": "SignMsg",
      "type": "event"
    },
    {
      "stateMutability": "nonpayable",
      "type": "fallback"
    },
    {
      "inputs": [],
      "name": "VERSION",
      "outputs": [
        {
          "internalType": "string",
          "name": "",
          "type": "string"
        }
      ],
      "stateMutability": "view",
      "type": "function"
    },
    {
      "inputs": [
        {
          "internalType": "address",
          "name": "owner",
          "type": "address"
        },
        {
          "internalType": "uint256",
          "name": "_threshold",
          "type": "uint256"
        }
      ],
      "name": "addOwnerWithThreshold",
      "outputs": [],
      "stateMutability": "nonpayable",
      "type": "function"
    },
    {
      "inputs": [
        {
          "internalType": "bytes32",
          "name": "hashToApprove",
          "type": "bytes32"
        }
      ],
      "name": "approveHash",
      "outputs": [],
      "stateMutability": "nonpayable",
      "type": "function"
    },
    {
      "inputs": [
        {
          "internalType": "address",
          "name": "",
          "type": "address"
        },
        {
          "internalType": "bytes32",
          "name": "",
          "type": "bytes32"
        }
      ],
      "name": "approvedHashes",
      "outputs": [
        {
          "internalType": "uint256",
          "name": "",
          "type": "uint256"
        }
      ],
      "stateMutability": "view",
      "type": "function"
    },
    {
      "inputs": [
        {
          "internalType": "uint256",
          "name": "_threshold",
          "type": "uint256"
        }
      ],
      "name": "changeThreshold",
      "outputs": [],
      "stateMutability": "nonpayable",
      "type": "function"
    },
    {
      "inputs": [
        {
          "internalType": "bytes32",
          "name": "dataHash",
          "type": "bytes32"
        },
        {
          "internalType": "bytes",
          "name": "data",
          "type": "bytes"
        },
        {
          "internalType": "bytes",
          "name": "signatures",
          "type": "bytes"
        },
        {
          "internalType": "uint256",
          "name": "requiredSignatures",
          "type": "uint256"
        }
      ],
      "name": "checkNSignatures",
      "outputs": [],
      "stateMutability": "view",
      "type": "function"
    },
    {
      "inputs": [
        {
          "internalType": "bytes32",
          "name": "dataHash",
          "type": "bytes32"
        },
        {
          "internalType": "bytes",
          "name": "data",
          "type": "bytes"
        },
        {
          "internalType": "bytes",
          "name": "signatures",
          "type": "bytes"
        }
      ],
      "name": "checkSignatures",
      "outputs": [],
      "stateMutability": "view",
      "type": "function"
    },
    {
      "inputs": [
        {
          "internalType": "address",
          "name": "prevModule",
          "type": "address"
        },
        {
          "internalType": "address",
          "name": "module",
          "type": "address"
        }
      ],
      "name": "disableModule",
      "outputs": [],
      "stateMutability": "nonpayable",
      "type": "function"
    },
    {
      "inputs": [],
      "name": "domainSeparator",
      "outputs": [
        {
          "internalType": "bytes32",
          "name": "",
          "type": "bytes32"
        }
      ],
      "stateMutability": "view",
      "type": "function"
    },
    {
      "inputs": [
        {
          "internalType": "address",
          "name": "module",
          "type": "address"
        }
      ],
      "name": "enableModule",
      "outputs": [],
      "stateMutability": "nonpayable",
      "type": "function"
    },
    {
      "inputs": [
        {
          "internalType": "address",
          "name": "to",
          "type": "address"
        },
        {
          "internalType": "uint256",
          "name": "value",
          "type": "uint256"
        },
        {
          "internalType": "bytes",
          "name": "data",
          "type": "bytes"
        },
        {
          "internalType": "enum Enum.Operation",
          "name": "operation",
          "type": "uint8"
        },
        {
          "internalType": "uint256",
          "name": "safeTxGas",
          "type": "uint256"
        },
        {
          "internalType": "uint256",
          "name": "baseGas",
          "type": "uint256"
        },
        {
          "internalType": "uint256",
          "name": "gasPrice",
          "type": "uint256"
        },
        {
          "internalType": "address",
          "name": "gasToken",
          "type": "address"
        },
        {
          "internalType": "address",
          "name": "refundReceiver",
          "type": "address"
        },
        {
          "internalType": "uint256",
          "name": "_nonce",
          "type": "uint256"
        }
      ],
      "name": "encodeTransactionData",
      "outputs": [
        {
          "internalType": "bytes",
          "name": "",
          "type": "bytes"
        }
      ],
      "stateMutability": "view",
      "type": "function"
    },
    {
      "inputs": [
        {
          "internalType": "address",
          "name": "to",
          "type": "address"
        },
        {
          "internalType": "uint256",
          "name": "value",
          "type": "uint256"
        },
        {
          "internalType": "bytes",
          "name": "data",
          "type": "bytes"
        },
        {
          "internalType": "enum Enum.Operation",
          "name": "operation",
          "type": "uint8"
        },
        {
          "internalType": "uint256",
          "name": "safeTxGas",
          "type": "uint256"
        },
        {
          "internalType": "uint256",
          "name": "baseGas",
          "type": "uint256"
        },
        {
          "internalType": "uint256",
          "name": "gasPrice",
          "type": "uint256"
        },
        {
          "internalType": "address",
          "name": "gasToken",
          "type": "address"
        },
        {
          "internalType": "address payable",
          "name": "refundReceiver",
          "type": "address"
        },
        {
          "internalType": "bytes",
          "name": "signatures",
          "type": "bytes"
        }
      ],
      "name": "execTransaction",
      "outputs": [
        {
          "internalType": "bool",
          "name": "success",
          "type": "bool"
        }
      ],
      "stateMutability": "payable",
      "type": "function"
    },
    {
      "inputs": [
        {
          "internalType": "address",
          "name": "to",
          "type": "address"
        },
        {
          "internalType": "uint256",
          "name": "value",
          "type": "uint256"
        },
        {
          "internalType": "bytes",
          "name": "data",
          "type": "bytes"
        },
        {
          "internalType": "enum Enum.Operation",
          "name": "operation",
          "type": "uint8"
        }
      ],
      "name": "execTransactionFromModule",
      "outputs": [
        {
          "internalType": "bool",
          "name": "success",
          "type": "bool"
        }
      ],
      "stateMutability": "nonpayable",
      "type": "function"
    },
    {
      "inputs": [
        {
          "internalType": "address",
          "name": "to",
          "type": "address"
        },
        {
          "internalType": "uint256",
          "name": "value",
          "type": "uint256"
        },
        {
          "internalType": "bytes",
          "name": "data",
          "type": "bytes"
        },
        {
          "internalType": "enum Enum.Operation",
          "name": "operation",
          "type": "uint8"
        }
      ],
      "name": "execTransactionFromModuleReturnData",
      "outputs": [
        {
          "internalType": "bool",
          "name": "success",
          "type": "bool"
        },
        {
          "internalType": "bytes",
          "name": "returnData",
          "type": "bytes"
        }
      ],
      "stateMutability": "nonpayable",
      "type": "function"
    },
    {
      "inputs": [],
      "name": "getChainId",
      "outputs": [
        {
          "internalType": "uint256",
          "name": "",
          "type": "uint256"
        }
      ],
      "stateMutability": "view",
      "type": "function"
    },
    {
      "inputs": [
        {
          "internalType": "address",
          "name": "start",
          "type": "address"
        },
        {
          "internalType": "uint256",
          "name": "pageSize",
          "type": "uint256"
        }
      ],
      "name": "getModulesPaginated",
      "outputs": [
        {
          "internalType": "address[]",
          "name": "array",
          "type": "address[]"
        },
        {
          "internalType": "address",
          "name": "next",
          "type": "address"
        }
      ],
      "stateMutability": "view",
      "type": "function"
    },
    {
      "inputs": [],
      "name": "getOwners",
      "outputs": [
        {
          "internalType": "address[]",
          "name": "",
          "type": "address[]"
        }
      ],
      "stateMutability": "view",
      "type": "function"
    },
    {
      "inputs": [
        {
          "internalType": "uint256",
          "name": "offset",
          "type": "uint256"
        },
        {
          "internalType": "uint256",
          "name": "length",
          "type": "uint256"
        }
      ],
      "name": "getStorageAt",
      "outputs": [
        {
          "internalType": "bytes",
          "name": "",
          "type": "bytes"
        }
      ],
      "stateMutability": "view",
      "type": "function"
    },
    {
      "inputs": [],
      "name": "getThreshold",
      "outputs": [
        {
          "internalType": "uint256",
          "name": "",
          "type": "uint256"
        }
      ],
      "stateMutability": "view",
      "type": "function"
    },
    {
      "inputs": [
        {
          "internalType": "address",
          "name": "to",
          "type": "address"
        },
        {
          "internalType": "uint256",
          "name": "value",
          "type": "uint256"
        },
        {
          "internalType": "bytes",
          "name": "data",
          "type": "bytes"
        },
        {
          "internalType": "enum Enum.Operation",
          "name": "operation",
          "type": "uint8"
        },
        {
          "internalType": "uint256",
          "name": "safeTxGas",
          "type": "uint256"
        },
        {
          "internalType": "uint256",
          "name": "baseGas",
          "type": "uint256"
        },
        {
          "internalType": "uint256",
          "name": "gasPrice",
          "type": "uint256"
        },
        {
          "internalType": "address",
          "name": "gasToken",
          "type": "address"
        },
        {
          "internalType": "address",
          "name": "refundReceiver",
          "type": "address"
        },
        {
          "internalType": "uint256",
          "name": "_nonce",
          "type": "uint256"
        }
      ],
      "name": "getTransactionHash",
      "outputs": [
        {
          "internalType": "bytes32",
          "name": "",
          "type": "bytes32"
        }
      ],
      "stateMutability": "view",
      "type": "function"
    },
    {
      "inputs": [
        {
          "internalType": "address",
          "name": "module",
          "type": "address"
        }
      ],
      "name": "isModuleEnabled",
      "outputs": [
        {
          "internalType": "bool",
          "name": "",
          "type": "bool"
        }
      ],
      "stateMutability": "view",
      "type": "function"
    },
    {
      "inputs": [
        {
          "internalType": "address",
          "name": "owner",
          "type": "address"
        }
      ],
      "name": "isOwner",
      "outputs": [
        {
          "internalType": "bool",
          "name": "",
          "type": "bool"
        }
      ],
      "stateMutability": "view",
      "type": "function"
    },
    {
      "inputs": [],
      "name": "nonce",
      "outputs": [
        {
          "internalType": "uint256",
          "name": "",
          "type": "uint256"
        }
      ],
      "stateMutability": "view",
      "type": "function"
    },
    {
      "inputs": [
        {
          "internalType": "address",
          "name": "prevOwner",
          "type": "address"
        },
        {
          "internalType": "address",
          "name": "owner",
          "type": "address"
        },
        {
          "internalType": "uint256",
          "name": "_threshold",
          "type": "uint256"
        }
      ],
      "name": "removeOwner",
      "outputs": [],
      "stateMutability": "nonpayable",
      "type": "function"
    },
    {
      "inputs": [
        {
          "internalType": "address",
          "name": "handler",
          "type": "address"
        }
      ],
      "name": "setFallbackHandler",
      "outputs": [],
      "stateMutability": "nonpayable",
      "type": "function"
    },
    {
      "inputs": [
        {
          "internalType": "address",
          "name": "guard",
          "type": "address"
        }
      ],
      "name": "setGuard",
      "outputs": [],
      "stateMutability": "nonpayable",
      "type": "function"
    },
    {
      "inputs": [
        {
          "internalType": "address[]",
          "name": "_owners",
          "type": "address[]"
        },
        {
          "internalType": "uint256",
          "name": "_threshold",
          "type": "uint256"
        },
        {
          "internalType": "address",
          "name": "to",
          "type": "address"
        },
        {
          "internalType": "bytes",
          "name": "data",
          "type": "bytes"
        },
        {
          "internalType": "address",
          "name": "fallbackHandler",
          "type": "address"
        },
        {
          "internalType": "address",
          "name": "paymentToken",
          "type": "address"
        },
        {
          "internalType": "uint256",
          "name": "payment",
          "type": "uint256"
        },
        {
          "internalType": "address payable",
          "name": "paymentReceiver",
          "type": "address"
        }
      ],
      "name": "setup",
      "outputs": [],
      "stateMutability": "nonpayable",
      "type": "function"
    },
    {
      "inputs": [
        {
          "internalType": "bytes32",
          "name": "",
          "type": "bytes32"
        }
      ],
      "name": "signedMessages",
      "outputs": [
        {
          "internalType": "uint256",
          "name": "",
          "type": "uint256"
        }
      ],
      "stateMutability": "view",
      "type": "function"
    },
    {
      "inputs": [
        {
          "internalType": "address",
          "name": "targetContract",
          "type": "address"
        },
        {
          "internalType": "bytes",
          "name": "calldataPayload",
          "type": "bytes"
        }
      ],
      "name": "simulateAndRevert",
      "outputs": [],
      "stateMutability": "nonpayable",
      "type": "function"
    },
    {
      "inputs": [
        {
          "internalType": "address",
          "name": "prevOwner",
          "type": "address"
        },
        {
          "internalType": "address",
          "name": "oldOwner",
          "type": "address"
        },
        {
          "internalType": "address",
          "name": "newOwner",
          "type": "address"
        }
      ],
      "name": "swapOwner",
      "outputs": [],
      "stateMutability": "nonpayable",
      "type": "function"
    },
    {
      "stateMutability": "payable",
      "type": "receive"
    }
  ],
  "bytecode": "0x608060405234801561001057600080fd5b506001600455613100806100256000396000f3fe6080604052600436106101d15760003560e01c8063affed0e0116100f7578063e19a9dd911610095578063f08a032311610064578063f08a0323146105f5578063f698da2514610615578063f8dc5dd91461062a578063ffa1ad741461064a5761020d565b8063e19a9dd914610580578063e318b52b146105a0578063e75235b8146105c0578063e86637db146105d55761020d565b8063cc2f8452116100d1578063cc2f8452146104f2578063d4d9bdcd14610520578063d8d11f7814610540578063e009cfde146105605761020d565b8063affed0e01461049c578063b4faba09146104b2578063b63e800d146104d25761020d565b80635624b25b1161016f5780636a7612021161013e5780636a7612021461040f5780637d83297414610422578063934f3a111461045a578063a0e67e2b1461047a5761020d565b80635624b25b146103755780635ae6bd37146103a2578063610b5925146103cf578063694e80c3146103ef5761020d565b80632f54bf6e116101ab5780632f54bf6e146102ea5780633408e4701461030a578063468721a7146103275780635229073f146103475761020d565b80630d582f131461027357806312fb68e0146102955780632d9ad53d146102b55761020d565b3661020d5760405134815233907f3d0ce9bfc3ed7d6862dbb28b2dea94561fe714a1b4d019aa8af39730d1ad7c3d9060200160405180910390a2005b34801561021957600080fd5b507f6c9a6c4a39284e37ed1cf53d337577d14212a4870fb976a4366c693b939918d580548061024457005b36600080373360601b365260008060143601600080855af190503d6000803e8061026d573d6000fd5b503d6000f35b34801561027f57600080fd5b5061029361028e3660046125b8565b61067b565b005b3480156102a157600080fd5b506102936102b0366004612687565b6107d3565b3480156102c157600080fd5b506102d56102d03660046126fc565b610c78565b60405190151581526020015b60405180910390f35b3480156102f657600080fd5b506102d56103053660046126fc565b610cb3565b34801561031657600080fd5b50465b6040519081526020016102e1565b34801561033357600080fd5b506102d5610342366004612728565b610ceb565b34801561035357600080fd5b50610367610362366004612728565b610dc4565b6040516102e19291906127df565b34801561038157600080fd5b506103956103903660046127fa565b610dfa565b6040516102e1919061281c565b3480156103ae57600080fd5b506103196103bd36600461282f565b60076020526000908152604090205481565b3480156103db57600080fd5b506102936103ea3660046126fc565b610e80565b3480156103fb57600080fd5b5061029361040a36600461282f565b610fb9565b6102d561041d366004612891565b611057565b34801561042e57600080fd5b5061031961043d3660046125b8565b600860209081526000928352604080842090915290825290205481565b34801561046657600080fd5b5061029361047536600461296a565b6113a2565b34801561048657600080fd5b5061048f6113ec565b6040516102e19190612a1b565b3480156104a857600080fd5b5061031960055481565b3480156104be57600080fd5b506102936104cd366004612a2e565b6114dd565b3480156104de57600080fd5b506102936104ed366004612a7e565b611500565b3480156104fe57600080fd5b5061051261050d3660046125b8565b611602565b6040516102e1929190612b73565b34801561052c57600080fd5b5061029361053b36600461282f565b6117be565b34801561054c57600080fd5b5061031961055b366004612b9d565b611853565b34801561056c57600080fd5b5061029361057b366004612c5e565b611880565b34801561058c57600080fd5b5061029361059b3660046126fc565b6119a2565b3480156105ac57600080fd5b506102936105bb366004612c97565b611ab8565b3480156105cc57600080fd5b50600454610319565b3480156105e157600080fd5b506103956105f0366004612b9d565b611c93565b34801561060157600080fd5b506102936106103660046126fc565b611d6c565b34801561062157600080fd5b50610319611db4565b34801561063657600080fd5b50610293610645366004612ce2565b611e0b565b34801561065657600080fd5b5061039560405180604001604052806005815260200164312e342e3160d81b81525081565b610683611f76565b6001600160a01b038216158015906106a557506001600160a01b038216600114155b80156106ba57506001600160a01b0382163014155b6106df5760405162461bcd60e51b81526004016106d690612d23565b60405180910390fd5b6001600160a01b0382811660009081526002602052604090205416156107175760405162461bcd60e51b81526004016106d690612d42565b60026020527fe90b7bceb6e7df5418fb78d8ee546e97c83a08bbccc01a0644d599ccd2a7c2e080546001600160a01b038481166000818152604081208054939094166001600160a01b03199384161790935560018352835490911617909155600380549161078483612d77565b90915550506040516001600160a01b038316907f9465fa0c962cc76958e6373a993326400c1c94f8be2fe3a952adfa7f60b2ea2690600090a280600454146107cf576107cf81610fb9565b5050565b6107de816041611faf565b825110156108165760405162461bcd60e51b8152602060048201526005602482015264047533032360dc1b60448201526064016106d6565b6000808060008060005b86811015610c6c576041818102890160208101516040820151919092015160ff169550909350915083610a2a57885160208a01208a1461088a5760405162461bcd60e51b8152602060048201526005602482015264475330323760d81b60448201526064016106d6565b919350839161089a876041611faf565b8210156108d15760405162461bcd60e51b8152602060048201526005602482015264475330323160d81b60448201526064016106d6565b87516108de836020611fe8565b11156109145760405162461bcd60e51b815260206004820152600560248201526423a998191960d91b60448201526064016106d6565b602082890181015189519091610937908390610931908790611fe8565b90611fe8565b111561096d5760405162461bcd60e51b8152602060048201526005602482015264475330323360d81b60448201526064016106d6565b6040516320c13b0b60e01b8082528a8501602001916001600160a01b038916906320c13b0b906109a3908f908690600401612d92565b602060405180830381865afa1580156109c0573d6000803e3d6000fd5b505050506040513d601f19601f820116820180604052508101906109e49190612db7565b6001600160e01b03191614610a235760405162461bcd60e51b815260206004820152600560248201526411d4cc0c8d60da1b60448201526064016106d6565b5050610bd2565b8360ff1660011415610aad579193508391336001600160a01b0384161480610a7457506001600160a01b03851660009081526008602090815260408083208d845290915290205415155b610aa85760405162461bcd60e51b8152602060048201526005602482015264475330323560d81b60448201526064016106d6565b610bd2565b601e8460ff161115610b72576040517f19457468657265756d205369676e6564204d6573736167653a0a3332000000006020820152603c81018b9052600190605c0160405160208183030381529060405280519060200120600486610b129190612de1565b6040805160008152602081018083529390935260ff90911690820152606081018590526080810184905260a0016020604051602081039080840390855afa158015610b61573d6000803e3d6000fd5b505050602060405103519450610bd2565b6040805160008152602081018083528c905260ff861691810191909152606081018490526080810183905260019060a0016020604051602081039080840390855afa158015610bc5573d6000803e3d6000fd5b5050506020604051035194505b856001600160a01b0316856001600160a01b0316118015610c0c57506001600160a01b038581166000908152600260205260409020541615155b8015610c2257506001600160a01b038516600114155b610c565760405162461bcd60e51b815260206004820152600560248201526423a998191b60d91b60448201526064016106d6565b8495508080610c6490612d77565b915050610820565b50505050505050505050565b600060016001600160a01b03831614801590610cad57506001600160a01b038281166000908152600160205260409020541615155b92915050565b60006001600160a01b038216600114801590610cad5750506001600160a01b0390811660009081526002602052604090205416151590565b600033600114801590610d155750336000908152600160205260409020546001600160a01b031615155b610d495760405162461bcd60e51b815260206004820152600560248201526411d4cc4c0d60da1b60448201526064016106d6565b610d5885858585600019612004565b90508015610d905760405133907f6895c13664aa4f67288b25d7a21d7aaa34916e355fb9b6fae0a139a9085becb890600090a2610dbc565b60405133907facd2c8702804128fdb0db2bb49f6d127dd0181c13fd45dbfe16de0930e2bd37590600090a25b949350505050565b60006060610dd486868686610ceb565b915060405160203d0181016040523d81523d6000602083013e8091505094509492505050565b60606000610e09836020612e04565b67ffffffffffffffff811115610e2157610e216125e4565b6040519080825280601f01601f191660200182016040528015610e4b576020820181803683370190505b50905060005b83811015610e78578481015460208083028401015280610e7081612d77565b915050610e51565b509392505050565b610e88611f76565b6001600160a01b03811615801590610eaa57506001600160a01b038116600114155b610ede5760405162461bcd60e51b8152602060048201526005602482015264475331303160d81b60448201526064016106d6565b6001600160a01b038181166000908152600160205260409020541615610f2e5760405162461bcd60e51b815260206004820152600560248201526423a998981960d91b60448201526064016106d6565b600160208190527fcc69885fda6bcc1a4ace058b4a62bf5e179ea78fd58a1ccd71c22cc9b688792f80546001600160a01b03848116600081815260408082208054949095166001600160a01b031994851617909455948552835490911681179092555190917fecdf3a3effea5783a3c4c2140e677577666428d44ed9d474a0b3a4c9943f844091a250565b610fc1611f76565b600354811115610fe35760405162461bcd60e51b81526004016106d690612e23565b600181101561101c5760405162461bcd60e51b815260206004820152600560248201526423a999181960d91b60448201526064016106d6565b60048190556040518181527f610f7ff2b304ae8903c3de74c60c6ab1f7d6226b3f52c5161905bb5ad4039c939060200160405180910390a150565b60008060006110718e8e8e8e8e8e8e8e8e8e600554611c93565b60058054919250600061108383612d77565b909155505080516020820120915061109c8282866113a2565b5060006110c77f4a204f620c8c5ccdca3fd54d003badd85ba500436a431f0cbda4f558c93c34c85490565b90506001600160a01b0381161561114d57806001600160a01b03166375f0bb528f8f8f8f8f8f8f8f8f8f8f336040518d63ffffffff1660e01b815260040161111a9c9b9a99989796959493929190612e7a565b600060405180830381600087803b15801561113457600080fd5b505af1158015611148573d6000803e3d6000fd5b505050505b61117961115c8a6109c4612f3f565b603f6111698c6040612e04565b6111739190612f57565b9061204c565b611185906101f4612f3f565b5a10156111bc5760405162461bcd60e51b8152602060048201526005602482015264047533031360dc1b60448201526064016106d6565b60005a905061122d8f8f8f8f8080601f016020809104026020016040519081016040528093929190818152602001838380828437600081840152601f19601f820116905080830192505050505050508e8c60001461121a578e612004565b6109c45a6112289190612f79565b612004565b935061123a5a8290612063565b9050838061124757508915155b8061125157508715155b6112855760405162461bcd60e51b8152602060048201526005602482015264475330313360d81b60448201526064016106d6565b6000881561129d5761129a828b8b8b8b61207e565b90505b84156112e257837f442e715f626346e8c54381002da614f62bee8d27386535b2521ec8540898556e826040516112d591815260200190565b60405180910390a261131d565b837f23428b18acfb3ea64b08dc0c1d296ea9c09702c09083ca5272e64d115b687d238260405161131491815260200190565b60405180910390a25b50506001600160a01b0381161561139157604051631264e26d60e31b81526004810183905283151560248201526001600160a01b03821690639327136890604401600060405180830381600087803b15801561137857600080fd5b505af115801561138c573d6000803e3d6000fd5b505050505b50509b9a5050505050505050505050565b600454806113da5760405162461bcd60e51b8152602060048201526005602482015264475330303160d81b60448201526064016106d6565b6113e6848484846107d3565b50505050565b6060600060035467ffffffffffffffff81111561140b5761140b6125e4565b604051908082528060200260200182016040528015611434578160200160208202803683370190505b506001600090815260026020527fe90b7bceb6e7df5418fb78d8ee546e97c83a08bbccc01a0644d599ccd2a7c2e054919250906001600160a01b03165b6001600160a01b0381166001146114d5578083838151811061149557611495612f90565b6001600160a01b039283166020918202929092018101919091529181166000908152600290925260409091205416816114cd81612d77565b925050611471565b509092915050565b600080825160208401855af480600052503d6020523d600060403e60403d016000fd5b61153e8a8a808060200260200160405190810160405280939291908181526020018383602002808284376000920191909152508c9250612184915050565b6001600160a01b03841615611556576115568461236a565b6115968787878080601f0160208091040260200160405190810160405280939291908181526020018383808284376000920191909152506123cf92505050565b81156115ad576115ab8260006001868561207e565b505b336001600160a01b03167f141df868a6331af528e38c83b7aa03edc19be66e37ae67f9285bf4f8e3c6a1a88b8b8b8b896040516115ee959493929190612fa6565b60405180910390a250505050505050505050565b606060006001600160a01b03841660011480611622575061162284610c78565b6116565760405162461bcd60e51b8152602060048201526005602482015264475331303560d81b60448201526064016106d6565b6000831161168e5760405162461bcd60e51b815260206004820152600560248201526423a998981b60d91b60448201526064016106d6565b8267ffffffffffffffff8111156116a7576116a76125e4565b6040519080825280602002602001820160405280156116d0578160200160208202803683370190505b506001600160a01b03808616600090815260016020526040812054929450911691505b6001600160a01b0382161580159061171557506001600160a01b038216600114155b801561172057508381105b1561177b578183828151811061173857611738612f90565b6001600160a01b0392831660209182029290920181019190915292811660009081526001909352604090922054909116908061177381612d77565b9150506116f3565b6001600160a01b0382166001146117b35782611798600183612f79565b815181106117a8576117a8612f90565b602002602001015191505b808352509250929050565b336000908152600260205260409020546001600160a01b031661180b5760405162461bcd60e51b8152602060048201526005602482015264047533033360dc1b60448201526064016106d6565b336000818152600860209081526040808320858452909152808220600190555183917ff2a0eb156472d1440255b0d7c1e19cc07115d1051fe605b0dce69acfec884d9c91a350565b60006118688c8c8c8c8c8c8c8c8c8c8c611c93565b8051906020012090509b9a5050505050505050505050565b611888611f76565b6001600160a01b038116158015906118aa57506001600160a01b038116600114155b6118de5760405162461bcd60e51b8152602060048201526005602482015264475331303160d81b60448201526064016106d6565b6001600160a01b038281166000908152600160205260409020548116908216146119325760405162461bcd60e51b8152602060048201526005602482015264475331303360d81b60448201526064016106d6565b6001600160a01b03818116600081815260016020526040808220805487861684528284208054919096166001600160a01b0319918216179095558383528054909416909355915190917faab4fa2b463f581b2b32cb3b7e3b704b9ce37cc209b5fb4d77e593ace405427691a25050565b6119aa611f76565b6001600160a01b03811615611a5c576040516301ffc9a760e01b815263736bd41d60e11b60048201526001600160a01b038216906301ffc9a790602401602060405180830381865afa158015611a04573d6000803e3d6000fd5b505050506040513d601f19601f82011682018060405250810190611a289190613012565b611a5c5760405162461bcd60e51b8152602060048201526005602482015264047533330360dc1b60448201526064016106d6565b7f4a204f620c8c5ccdca3fd54d003badd85ba500436a431f0cbda4f558c93c34c88181556040516001600160a01b038316907f1151116914515bc0891ff9047a6cb32cf902546f83066499bcf8ba33d2353fa290600090a25050565b611ac0611f76565b6001600160a01b03811615801590611ae257506001600160a01b038116600114155b8015611af757506001600160a01b0381163014155b611b135760405162461bcd60e51b81526004016106d690612d23565b6001600160a01b038181166000908152600260205260409020541615611b4b5760405162461bcd60e51b81526004016106d690612d42565b6001600160a01b03821615801590611b6d57506001600160a01b038216600114155b611b895760405162461bcd60e51b81526004016106d690612d23565b6001600160a01b03838116600090815260026020526040902054811690831614611bdd5760405162461bcd60e51b8152602060048201526005602482015264475332303560d81b60448201526064016106d6565b6001600160a01b03828116600081815260026020526040808220805486861680855283852080549288166001600160a01b03199384161790559589168452828420805482169096179095558383528054909416909355915190917ff8d49fc529812e9a7c5c50e69c20f0dccc0db8fa95c98bc58cc9a4f1c1299eaf91a26040516001600160a01b038216907f9465fa0c962cc76958e6373a993326400c1c94f8be2fe3a952adfa7f60b2ea2690600090a2505050565b606060007fbb8310d486368db6bd6f849402fdd73ad53d316b5a4b2644ad6efe0f941286d860001b8d8d8d8d604051611ccd929190613034565b604051908190038120611cf3949392918e908e908e908e908e908e908e90602001613044565b60408051601f1981840301815291905280516020909101209050601960f81b600160f81b611d1f611db4565b6040516001600160f81b031993841660208201529290911660218301526022820152604281018290526062016040516020818303038152906040529150509b9a5050505050505050505050565b611d74611f76565b611d7d8161236a565b6040516001600160a01b038216907f5ac6c46c93c8d0e53714ba3b53db3e7c046da994313d7ed0d192028bc7c228b090600090a250565b60007f47e79534a245952e8b16893a336b85a3d9ea9fa8c573f3d803afb92a794692184660408051602081019390935282015230606082015260800160405160208183030381529060405280519060200120905090565b611e13611f76565b806001600354611e239190612f79565b1015611e415760405162461bcd60e51b81526004016106d690612e23565b6001600160a01b03821615801590611e6357506001600160a01b038216600114155b611e7f5760405162461bcd60e51b81526004016106d690612d23565b6001600160a01b03838116600090815260026020526040902054811690831614611ed35760405162461bcd60e51b8152602060048201526005602482015264475332303560d81b60448201526064016106d6565b6001600160a01b03828116600081815260026020526040808220805488861684529183208054929095166001600160a01b03199283161790945591815282549091169091556003805491611f26836130b3565b90915550506040516001600160a01b038316907ff8d49fc529812e9a7c5c50e69c20f0dccc0db8fa95c98bc58cc9a4f1c1299eaf90600090a28060045414611f7157611f7181610fb9565b505050565b333014611fad5760405162461bcd60e51b8152602060048201526005602482015264475330333160d81b60448201526064016106d6565b565b600082611fbe57506000610cad565b6000611fca8385612e04565b905082611fd78583612f57565b14611fe157600080fd5b9392505050565b600080611ff58385612f3f565b905083811015611fe157600080fd5b6000600183600181111561201a5761201a612e42565b1415612033576000808551602087018986f49050612043565b600080855160208701888a87f190505b95945050505050565b60008183101561205c5781611fe1565b5090919050565b60008282111561207257600080fd5b6000610dbc8385612f79565b6000806001600160a01b038316156120965782612098565b325b90506001600160a01b03841661212b576120ca3a86106120b8573a6120ba565b855b6120c48989611fe8565b90611faf565b6040519092506001600160a01b0382169083156108fc029084906000818181858888f193505050506121265760405162461bcd60e51b8152602060048201526005602482015264475330313160d81b60448201526064016106d6565b61217a565b612139856120c48989611fe8565b9150612146848284612501565b61217a5760405162461bcd60e51b815260206004820152600560248201526423a998189960d91b60448201526064016106d6565b5095945050505050565b600454156121bc5760405162461bcd60e51b8152602060048201526005602482015264047533230360dc1b60448201526064016106d6565b81518111156121dd5760405162461bcd60e51b81526004016106d690612e23565b60018110156122165760405162461bcd60e51b815260206004820152600560248201526423a999181960d91b60448201526064016106d6565b600160005b835181101561233757600084828151811061223857612238612f90565b6020026020010151905060006001600160a01b0316816001600160a01b03161415801561226f57506001600160a01b038116600114155b801561228457506001600160a01b0381163014155b80156122a25750806001600160a01b0316836001600160a01b031614155b6122be5760405162461bcd60e51b81526004016106d690612d23565b6001600160a01b0381811660009081526002602052604090205416156122f65760405162461bcd60e51b81526004016106d690612d42565b6001600160a01b03928316600090815260026020526040902080546001600160a01b031916938216939093179092558061232f81612d77565b91505061221b565b506001600160a01b0316600090815260026020526040902080546001600160a01b03191660011790559051600355600455565b6001600160a01b0381163014156123ab5760405162461bcd60e51b8152602060048201526005602482015264047533430360dc1b60448201526064016106d6565b7f6c9a6c4a39284e37ed1cf53d337577d14212a4870fb976a4366c693b939918d555565b600160008190526020527fcc69885fda6bcc1a4ace058b4a62bf5e179ea78fd58a1ccd71c22cc9b688792f546001600160a01b0316156124395760405162461bcd60e51b8152602060048201526005602482015264047533130360dc1b60448201526064016106d6565b6001600081905260208190527fcc69885fda6bcc1a4ace058b4a62bf5e179ea78fd58a1ccd71c22cc9b688792f80546001600160a01b03191690911790556001600160a01b038216156107cf57813b6124bc5760405162461bcd60e51b815260206004820152600560248201526423a998181960d91b60448201526064016106d6565b6124cd826000836001600019612004565b6107cf5760405162461bcd60e51b8152602060048201526005602482015264047533030360dc1b60448201526064016106d6565b604080516001600160a01b03841660248201526044808201849052825180830390910181526064909101909152602080820180516001600160e01b031663a9059cbb60e01b1781528251600093929184919082896127105a03f13d8015612573576020811461257b5760009350612586565b819350612586565b600051158215171593505b5050509392505050565b6001600160a01b03811681146125a557600080fd5b50565b80356125b381612590565b919050565b600080604083850312156125cb57600080fd5b82356125d681612590565b946020939093013593505050565b634e487b7160e01b600052604160045260246000fd5b600082601f83011261260b57600080fd5b813567ffffffffffffffff80821115612626576126266125e4565b604051601f8301601f19908116603f0116810190828211818310171561264e5761264e6125e4565b8160405283815286602085880101111561266757600080fd5b836020870160208301376000602085830101528094505050505092915050565b6000806000806080858703121561269d57600080fd5b84359350602085013567ffffffffffffffff808211156126bc57600080fd5b6126c8888389016125fa565b945060408701359150808211156126de57600080fd5b506126eb878288016125fa565b949793965093946060013593505050565b60006020828403121561270e57600080fd5b8135611fe181612590565b8035600281106125b357600080fd5b6000806000806080858703121561273e57600080fd5b843561274981612590565b935060208501359250604085013567ffffffffffffffff81111561276c57600080fd5b612778878288016125fa565b92505061278760608601612719565b905092959194509250565b6000815180845260005b818110156127b85760208185018101518683018201520161279c565b818111156127ca576000602083870101525b50601f01601f19169290920160200192915050565b8215158152604060208201526000610dbc6040830184612792565b6000806040838503121561280d57600080fd5b50508035926020909101359150565b602081526000611fe16020830184612792565b60006020828403121561284157600080fd5b5035919050565b60008083601f84011261285a57600080fd5b50813567ffffffffffffffff81111561287257600080fd5b60208301915083602082850101111561288a57600080fd5b9250929050565b60008060008060008060008060008060006101408c8e0312156128b357600080fd5b6128bc8c6125a8565b9a5060208c0135995067ffffffffffffffff8060408e013511156128df57600080fd5b6128ef8e60408f01358f01612848565b909a50985061290060608e01612719565b975060808d0135965060a08d0135955060c08d0135945061292360e08e016125a8565b93506129326101008e016125a8565b9250806101208e0135111561294657600080fd5b506129588d6101208e01358e016125fa565b90509295989b509295989b9093969950565b60008060006060848603121561297f57600080fd5b83359250602084013567ffffffffffffffff8082111561299e57600080fd5b6129aa878388016125fa565b935060408601359150808211156129c057600080fd5b506129cd868287016125fa565b9150509250925092565b600081518084526020808501945080840160005b83811015612a105781516001600160a01b0316875295820195908201906001016129eb565b509495945050505050565b602081526000611fe160208301846129d7565b60008060408385031215612a4157600080fd5b8235612a4c81612590565b9150602083013567ffffffffffffffff811115612a6857600080fd5b612a74858286016125fa565b9150509250929050565b6000806000806000806000806000806101008b8d031215612a9e57600080fd5b8a3567ffffffffffffffff80821115612ab657600080fd5b818d0191508d601f830112612aca57600080fd5b813581811115612ad957600080fd5b8e60208260051b8501011115612aee57600080fd5b60208381019d50909b508d01359950612b0960408e016125a8565b985060608d0135915080821115612b1f57600080fd5b50612b2c8d828e01612848565b9097509550612b3f905060808c016125a8565b9350612b4d60a08c016125a8565b925060c08b01359150612b6260e08c016125a8565b90509295989b9194979a5092959850565b604081526000612b8660408301856129d7565b905060018060a01b03831660208301529392505050565b60008060008060008060008060008060006101408c8e031215612bbf57600080fd5b8b35612bca81612590565b9a5060208c0135995060408c013567ffffffffffffffff811115612bed57600080fd5b612bf98e828f01612848565b909a509850612c0c905060608d01612719565b965060808c0135955060a08c0135945060c08c0135935060e08c0135612c3181612590565b92506101008c0135612c4281612590565b809250506101208c013590509295989b509295989b9093969950565b60008060408385031215612c7157600080fd5b8235612c7c81612590565b91506020830135612c8c81612590565b809150509250929050565b600080600060608486031215612cac57600080fd5b8335612cb781612590565b92506020840135612cc781612590565b91506040840135612cd781612590565b809150509250925092565b600080600060608486031215612cf757600080fd5b8335612d0281612590565b92506020840135612d1281612590565b929592945050506040919091013590565b602080825260059082015264475332303360d81b604082015260600190565b60208082526005908201526411d4cc8c0d60da1b604082015260600190565b634e487b7160e01b600052601160045260246000fd5b6000600019821415612d8b57612d8b612d61565b5060010190565b604081526000612da56040830185612792565b82810360208401526120438185612792565b600060208284031215612dc957600080fd5b81516001600160e01b031981168114611fe157600080fd5b600060ff821660ff841680821015612dfb57612dfb612d61565b90039392505050565b6000816000190483118215151615612e1e57612e1e612d61565b500290565b602080825260059082015264475332303160d81b604082015260600190565b634e487b7160e01b600052602160045260246000fd5b60028110612e7657634e487b7160e01b600052602160045260246000fd5b9052565b6001600160a01b038d168152602081018c90526101606040820181905281018a905260006101808b8d828501376000838d01820152601f8c01601f19168301612ec6606085018d612e58565b8a60808501528960a08501528860c0850152612eed60e08501896001600160a01b03169052565b6001600160a01b0387166101008501528184820301610120850152612f1482820187612792565b92505050612f2e6101408301846001600160a01b03169052565b9d9c50505050505050505050505050565b60008219821115612f5257612f52612d61565b500190565b600082612f7457634e487b7160e01b600052601260045260246000fd5b500490565b600082821015612f8b57612f8b612d61565b500390565b634e487b7160e01b600052603260045260246000fd5b6080808252810185905260008660a08301825b88811015612fe9578235612fcc81612590565b6001600160a01b0316825260209283019290910190600101612fb9565b50602084019690965250506001600160a01b039283166040820152911660609091015292915050565b60006020828403121561302457600080fd5b81518015158114611fe157600080fd5b8183823760009101908152919050565b8b81526001600160a01b038b81166020830152604082018b9052606082018a9052610160820190613078608084018b612e58565b60a083019890985260c082019690965260e0810194909452918516610100840152909316610120820152610140019190915295945050505050565b6000816130c2576130c2612d61565b50600019019056fea2646970667358221220bab4382f90dbcf311c2726d307a8126c66d352e75e7712b95f1b3fe9ff07277c64736f6c634300080c0033",
  "linkReferences": {},
  "deployedLinkReferences": {}
}